:020000040800F2
:1000000028070020D9000008A11C0008F5190008E5
:1000100000000000000000000000000000000000E0
:10002000000000000000000000000000A51C000807
:100030000000000000000000A31C0008A71C00082E
:100040000901000809010008090100080901000868
:100050000901000809010008090100080901000858
:100060000901000809010008090100080901000848
:100070000901000809010008090100080901000838
:10008000090100080000000000000000111D000828
:10009000000000000901000809010008090100082A
:1000A000000000000901000809010008CD23000834
:1000B000DD23000800000000090100080901000814
:1000C0000448854600F0B4F8004800478124000841
:1000D000C046C046280700200C4880F308880C481A
:1000E0000168090E0B4A914205D10B480B4901608A
:1000F0000B480C4901600C4880470C480047FEE75C
:10010000FEE7FEE7FEE7FEE7FEE700002807002027
:10011000040000001F000000181002400100000051
:1001200000000140000000000F1D0008C100000891
:1001300030B50B46014600202022012409E00D467F
:10014000D5409D4205D31D469540491B2546954007
:1001500040191546521E002DF1DC30BDF0B51FB41C
:100160000646002082B005464024019100901BE025
:10017000019922460F46304600F020F8049A059B6C
:10018000801A994110D310461946224600F040F8D3
:10019000361A8F410197224601200021009F00F06E
:1001A00037F838184D4100902046641E0028DFDCE7
:1001B000019B00982946324607B0F0BD10B5202AB1
:1001C00004DB0846203AD040002110BD0B46D34046
:1001D000D0402024A21A91400843194610BDD2B243
:1001E00001E00270401C491EFBD270470022F6E776
:1001F00010B513460A4604461946FFF7F0FF20469D
:1002000010BD421C0178401C0029FBD1801A7047A8
:1002100010B5202A04DB0146203A9140002010BD91
:10022000914020239C1A0346E3401943904010BD9F
:10023000064C0125064E05E0E36807CC2B430C3C39
:1002400098471034B442F7D3FFF73EFF5C2500080F
:100250007C25000870470000F8B5002504462034CE
:100260000095227D012A3BD00122227503689E68F9
:10027000760776D43F4F4E68BE4254D09E6A0F78C0
:10028000BA4016439E620123C26A1B079A421FD0DE
:10029000012A1DD0022A1BD0032A19D0042A17D004
:1002A000052A15D0062A13D0072A11D002688B68B8
:1002B00056697607760FB3420AD05369DB08DB0034
:1002C0005361006842690B7A5B075B0F1A43426116
:1002D0000868102806D0112804D0122802D045E062
:1002E0000220F8BD244A9368102809D011280AD0AA
:1002F00001200006034393600868102806D035E00B
:100300000120C005F6E701208005F3E71C481B49E2
:100310000068FFF70DFF0A21484300E0401E0090EF
:100320000028FBD122E0986A0E78B2409043986290
:100330000868102803D0112801D0122816D10E49C0
:100340008A68102807D0112808D0012000068243AF
:100350008A600BE005E00120C005F8E70120800578
:10036000F5E7816B20221143816301250020207570
:100370002846F8BD011000000027014040420F0050
:1003800030000020F8B500260446002805D0A06BF8
:1003900025462035002802D007E00120F8BD0020C6
:1003A000E0632875204600F0A9F8A06B1022C00673
:1003B000002870DB2068816849076CD4A16B1301A9
:1003C000994302231943A16381688907890F012991
:1003D00005D10168C9070FD1C16809040CD4C168EF
:1003E00018239943A3681943C160206801696368B1
:1003F00089008908194301612068C1683D4B194093
:10040000C160207E617E8003C9030843A17E4B0347
:100410001843A36A012B02D001231B0300E0002331
:100420001843E36818432369022B09D000231843BB
:100430002B79E57E5B0018430123012D02D00AE0F1
:100440000423F4E7002927D0A16B20252943A163C9
:10045000E16B1943E163E1690D46FF3DC23D02D006
:10046000256A294308432168CD680543CD600125ED
:10047000E16A2D07A94213D0012911D002290FD01A
:1004800003290DD004290BD0052909D0062907D04E
:10049000072905D010E028E0012109040843DAE724
:1004A00021684D69ED08ED004D6121684D69A78D0A
:1004B0007F077F0F3D434D612168C9680E4D29407C
:1004C000814207D10020E063A06B80088000401CBF
:1004D000A06308E0A06B022188431043A063E06B97
:1004E0001843E06301263046F8BDA06B1043A063BB
:1004F000F8E700001902FEFFE7FF3F8310B586B062
:10050000044614216846FFF771FE104920688842AE
:1005100019D10F48826941150A43826182690A40F4
:100520000592426909020A43426140690840059008
:10053000812000900320019000200290092069464C
:10054000C00600F0F7F806B010BD0000002401401E
:1005500000100240F8B5040005D025462035287863
:10056000002802D004E00120F8BD204600F07AF80F
:100570002068016802229143016000F093F901278D
:1005800006467F0404E000F08DF9801B0A2811D88C
:10059000206840688007F6D4206801680122114372
:1005A000016000F07FF906460AE000F07BF9801B4D
:1005B0000A2805D9606A3843606205202870D2E7AE
:1005C00020684068C007F0D0217E80200129216882
:1005D0000A683BD082430A60617E4020012921687D
:1005E0000A6835D082430A60A17E20200129216853
:1005F0000A682FD082430A60E17E10200129216819
:100600000A6829D002430A60217F08200129216855
:100610000A6823D082430A60617F0420012921688F
:100620000A681DD082430A60E168A06862690843D5
:100630002169114308436168491E08432168C86164
:1006400000206062012028700020F8BD0243C2E74C
:100650000243C8E70243CEE78243D4E70243DAE726
:100660000243E0E710B586B0044614216846FFF760
:10067000BDFD1349206888421FD11248C26901217B
:1006800049060A43C261C2690A40059242690912D9
:100690000A4342614069084005900320C00200906F
:1006A0000220019000200290032003900420049077
:1006B00009206946C00600F03DF806B010BD0000F4
:1006C000006400400010024070B500240146203153
:1006D0004A78022A03D004218163012416E00268CB
:1006E00013680E25AB431360026813685B085B0058
:1006F00013600122056C1346AB40C56B6B604A70FA
:1007000000220A70416B002900D08847204670BD46
:1007100070B5044600F0C6F80546601C02D00448D7
:100720000078241800F0BEF8401BA042FAD370BD38
:1007300024000020FCB5002301249CE027462A4623
:100740009F403A4073D04D68012D05D0022D03D053
:10075000112D01D0122D16D185680326AC465D00FF
:10076000AE46AE406546B543AC46CE687546AE4033
:1007700065462E43866046680D79BE43ED06ED0F53
:100780009D4035434560C6685F000325BD40AE46C9
:10079000AE4335468E68BE402E43C6604E68022E7C
:1007A00001D0122E14D1DE08B60036180196366A32
:1007B0005D07B446EE0E0F25B54000966646AE4383
:1007C000B4460D69009EB54066462E43019D2E62DB
:1007D00006687546AE430D79AD07AD0FBD40354394
:1007E00005604D68ED0045D5264DAE692643AE61E6
:1007F000AD699E08ED07ED0F0095234DB600751904
:10080000AC46AD689E07360F0F27B740BD4309279A
:10081000FF06B84201D100270BE01C4FB84201D1BE
:10082000012706E01A4FB84202D1022701E021E079
:100830000527B7402F436546AF60164E35684F68B1
:100840009543FF0300D51543356075684F689543A0
:10085000BF0300D515437560B5684F689543FF0227
:1008600000D51543B560F5684F689543BF0200D5C4
:100870001543F5605B1C0A681546DA4000D05DE759
:10088000FCBD0000001002400000014000040048D0
:100890000008004800040140002A01D0816170472F
:1008A0008162704701488068704700002400002082
:1008B000024881680278891881607047240000200E
:1008C00010B506480168102211430160002000F0B5
:1008D00007F800F027F8002010BD000000200240BB
:1008E00070B504460D4D7D202978C000FFF720FC2F
:1008F00001460B480068FFF71BFC00F0A3FB002833
:1009000009D1042C07D200222146401E00F02AF80B
:1009100000206C6070BD012070BD0000240000202C
:100920003000002008B50848816901221143816127
:10093000816911400091C26901040A43C261C06922
:100940000840009008BD000000100240002805DBB0
:10095000C106C90E012088400149086070470000A7
:1009600000E100E010B501F059FD10BDF8B50446F6
:1009700000683E4DC00352D5E8690026C00007D488
:10098000E96928040143E961E96901400126009110
:1009900037480168C90510D4016882151143016008
:1009A000FFF780FF074604E0FFF77CFFC01B6428C9
:1009B00024D82F480068C005F6D5286A03273F02CF
:1009C000384020D06168394081421CD0286A2A6AA8
:1009D000B843012109040A432A622A6A8A432A6227
:1009E0002862C0070FD0FFF75DFF009008E0FFF717
:1009F00059FF0099411A1F48814201D90320F8BDCF
:100A0000286A8007F3D5286A6168B84308432862DA
:100A1000002E04D0E969012000078143E9612078B4
:100A2000C00705D0286BA1688008800008432863B0
:100A30002078800605D5286B10218843E16808439B
:100A400028632068800305D5286B8021884361696D
:100A5000084328632088400505D5286B402188433A
:100A60002169084328630020F8BD000000100240FF
:100A70000070004088130000F8B50F4606005FD0F4
:100A80003D4D2868C007C00FB84209D22868400809
:100A90004000384328602868C007C00FB8424FD1D3
:100AA0003068364C81070CD5400704D560680721B3
:100AB0000902084360606068F0218843B168084318
:100AC00060603078C0072CD07068012810D00228F0
:100AD00011D0032812D021688907002930DA616813
:100AE0008908890001436160FFF7DCFE009011E096
:100AF00021688903F1E721688901EEE7616BC90389
:100B0000EBE7FFF7CFFE0099411A1D48814201D95A
:100B10000320F8BD60680C21084071688900884294
:100B2000EFD12868C007C00FB8420BD92868400829
:100B30004000384328602868C007C00FB84201D081
:100B40000120F8BD3078400706D56068072109020A
:100B50008843F1680843606000F028F86168094A3A
:100B60000906090F515CC840074908600020FFF7DB
:100B7000B7FE0020F8BD0000002002400010024037
:100B8000881300004425000830000020044805496F
:100B900000684968044A4905490F515CC8407047DC
:100BA00030000020001002405425000830B519A381
:100BB0000FCB89B06C460FC41AA30FCB0FC41D4ACC
:100BC00051680C200B4603401B48042B05D01B4DDD
:100BD000082B04D00C2B00D1284609B030BD8B0265
:100BE0001B0F6C46E45CD26A04AB1207120FC903F8
:100BF0009A5C890F022901D0032901D0002301E06A
:100C0000002328460021FFF7A9FA214601F0EEFB58
:100C1000E3E7000002030405060708090A0B0C0DB0
:100C20000E0F10100102030405060708090A0B0C39
:100C30000D0E0F100010024000127A00006CDC0252
:100C4000FEB5040070D02078F94EFA4DC00748D0A8
:100C500068680007800F01281FD068680007800FB0
:100C6000022804D16868C003800F022815D061688B
:100C7000012919D001208004002901D0052917D0AD
:100C80002968B14329602968814329606068002888
:100C90001BD0FFF707FE074613E02868800320D526
:100CA00060680028CED01CE0286830432860EDE75B
:100CB000296801432960F7E7FFF7F4FDC01B6428AA
:100CC00070D828688003F7D50BE0FFF7EBFD0746E7
:100CD00004E0FFF7E7FDC01B6428F1D82868800313
:100CE000F7D4207880073FD568680007800F14D0BC
:100CF00068680007800F022804D16868C003800F6D
:100D000001280AD0E068002828681ED00121084385
:100D10002860FFF7C7FD07460CE0286880070CD560
:100D2000E068012800D108E080E1FFF7BBFDC01BAF
:100D30000228C5D828688007F7D52868F821884395
:100D40002169C900084328600EE04008400028607F
:100D5000FFF7A8FD074604E0FFF7A4FDC01B02282B
:100D6000AED828688007F7D42078000723D5E0693B
:100D70000028686A0FD0012108436862FFF792FDDE
:100D8000074604E0FFF78EFDC01B022898D8686A6A
:100D90008007F7D50FE0400840006862FFF782FD4A
:100DA000074605E0C3E0FFF77DFDC01B022887D89A
:100DB000686A8007F7D4207804274007002861DAA2
:100DC00000200190E869C00008D4E969B806014331
:100DD000E961E969014001200091019096480168AC
:100DE000C90511D40168821511430160FFF75AFD4E
:100DF000009005E0FFF756FD0099401A642898D846
:100E00008D480068C005F5D5A06801280AD00028E3
:100E100001D0052811D0286A400840002862286ABD
:100E2000B84302E0286A012108432862A06800282C
:100E300012D0FFF737FD00900AE0286A3843286295
:100E4000F0E7FFF72FFD0099411A7C4881426ED8E8
:100E5000286A8007F5D50DE0FFF724FD009006E035
:100E6000FFF720FD0099411A744881425FD8286A33
:100E70008007F5D40198002804D0E9690120000713
:100E80008143E9612078C00635D5606901280CD01E
:100E9000401D686B24D038436863686B400840008D
:100EA0006863FFF7FFFC074622E0686B384368631E
:100EB000686B012108436863FFF7F4FC074604E010
:100EC000FFF7F0FCC01B022831D8686B8007F7D50C
:100ED000686BF8218843A169C900084368630AE088
:100EE000B8436863F4E7FFF7DDFCC01B02281ED897
:100EF000686B8007F7D42078800637D568680007CC
:100F0000800F032814D068680007800F022804D1DE
:100F10006868C003800F03280AD0206A0028686B25
:100F200016D030436863FFF7BDFC06460CE062E074
:100F3000686BC0031AD5206A012877D116E0FFF745
:100F4000B1FC801B022856D8686BC003F7D50DE0B2
:100F5000B0436863FFF7A6FC064604E0FFF7A2FC77
:100F6000801B022847D8686BC003F7D4606A00284A
:100F700066D069680907890F022942D00126360622
:100F80000228286805D0B0432860FFF78BFC044690
:100F900033E0B0432860FFF785FC074604E0FFF725
:100FA00081FCC01B022826D828688001F7D4E86A93
:100FB000216B000900010843E862A16AE06A084366
:100FC00069687B22D20391430843686028683043F4
:100FD0002860FFF767FC044604E0FFF763FC001B92
:100FE000022808D828688001F7D529E0FFF75AFCC5
:100FF000001B022801D90320FEBD28688001F5D41A
:101000001EE00128F8D06868E96A0322D203A36AC7
:1010100002409A420AD10907226B090F914205D179
:101020000F2189040840E16A884209D00120FEBDF1
:101030000000010000100240007000408813000012
:101040000020F4E7094910B5401E884201D901206B
:1010500010BD074C60610321081F01F0DFF900207B
:10106000A06107202061002010BD0000FFFFFF00ED
:1010700000E000E070477047F0B502462032137F71
:10108000012B1ED00125157702235377066874685B
:10109000B3687027BC430F682743776000680A4C29
:1010A000A04205D0AC07A04202D0084CA04204D117
:1010B00080244968A3431943816055770020107745
:1010C000F0BD0220F0BD0000002C014000040040F3
:1010D00070B5040005D025462035687F002802D071
:1010E00006E0012070BD00202877204600F00AF8B5
:1010F00002206877211D206800F012FE0120687729
:10110000002070BD08B5104A01681048914207D10F
:10111000C26902210A43C261C0690840009008BD4B
:101120000B4A9142FBD1C26989150A43C261C06969
:1011300000220840009011461320FFF713FC1320F3
:10114000FFF704FC08BD000000040040001002404E
:1011500000200040F8B5054604462035287F0128C8
:1011600017D001262E7702206877226890687727AB
:10117000FF23B8431B02984390600A68502A31D07D
:101180000EDC202A4BD006DC002A48D0102A3AD1A7
:1011900045E00220F8BD302A41D0402A33D136E064
:1011A000602A27D0702A12D001200003121A2AD0F8
:1011B000824228D1CB684A688968206800F0F2FD35
:1011C0002068816801229203114381601BE0CB6893
:1011D0004A688968206800F0E5FD2168886838431E
:1011E000886010E0CA684968206800F0D1FE50218C
:1011F000206806E0CA684968206800F0DAFE6021CD
:10120000206800F0DAFD6E7700202877F8BDCA6804
:101210004968206800F0BCFE40212068F1E71146D3
:101220002068EEE7704770B5044600680169002544
:10123000C9438907002915DBC168C943890711D44F
:10124000E91E01610120207720688069800720461F
:1012500002D0FFF7E7FF04E000F0BEF8204600F000
:101260003FF9257720680169C943490717D4C16848
:10127000C943490713D40421C943016102202077DF
:10128000206880698005800F204602D0FFF7CAFFE2
:1012900004E000F0A1F8204600F022F9257720684C
:1012A0000169C943090716D4C168C943090712D4A3
:1012B0000821C9430161042020772068C0698007A4
:1012C000204602D0FFF7AEFF04E000F085F820468C
:1012D00000F006F9257720680169C943C90617D4CB
:1012E000C168C943C90613D41021C943016108204C
:1012F00020772068C0698005800F204602D0FFF764
:1013000091FF04E000F068F8204600F0E9F8257746
:1013100020680169C943C90708D1C168C943C90721
:1013200004D1891E0161204600F0DCF820680169C3
:10133000C943090609D4C168C943090605D48021F7
:10134000C94301612046FFF795FE20680169C94342
:10135000490609D4C168C943490605D44021C94397
:101360000161204600F0CCF820680169C943890674
:1013700009D4C168C943890605D42021C943016144
:101380002046FFF778FE70BD10B586B004461421E4
:101390006846FEF72BFF0D492068884214D10C489F
:1013A000426909130A4342614069084005901020D0
:1013B00000900220019000200290039001200490F0
:1013C00069460448FFF7B6F906B010BD00040040B6
:1013D00000100240000400487047F8B50646044675
:1013E0002036307F0D4601280DD0012030770220B5
:1013F00070770427002A08D0042A16D0082A2AD099
:101400000C2A4DD137E00220F8BD206800F0DEFC48
:101410002068816908221143816120688169B9438C
:101420008161206881692A6912E0206800F00AFD64
:10143000206882690121C9020A43826120688169AA
:101440000122920291438161206881692A69120216
:101450001143816124E0206800F02EFD2068C269FC
:1014600008210A43C2612068C169B943C16120688B
:10147000C1692A6912E0206800F05AFD2068C1693C
:101480000122D2021143C1612068C269012189028F
:101490008A43C2612068C1692A6912021143C1618D
:1014A0000120707700203077F8BD70B5040005D0BA
:1014B00025462035687F002802D006E0012070BD57
:1014C00000202877204600F00AF802206877211DC6
:1014D000206800F025FC01206877002070BD70476F
:1014E0007047000000680449884203D10348C1687E
:1014F000491CC1607047000000200040000000202F
:101500007047704770470000F8B502680446D0691C
:1015100011689368524D05402E462025002E68D054
:10152000DE07F60FFF2721370F40374375D0C70777
:1015300006D0CF0504D501271762E26F3A43E26770
:10154000820708D5DA0706D0276802223A62E26FDE
:1015500004273A43E267420708D5DA0706D0236832
:1015600004221A62E26F02231A43E267020709D5D6
:101570000A462A40324305D0236808221A62E36FE4
:101580001343E367020508D54A0106D50122236803
:10159000D2021A62E26F2A43E267E26F002A30D079
:1015A000800606D5880604D5216E002901D0204684
:1015B0008847E06F21688968490602D428210842DB
:1015C00024D0204600F0A8FD20688168490619D57E
:1015D0008168402291438160E06E002812D0214949
:1015E0004163E06EFFF770F800280AD0E06E416BAF
:1015F00006E0860611D58E060FD5216E1DE0204629
:101600008847F8BD2046FFF77DFFF8BD2046FFF76D
:1016100079FF0020E067F8BDFFE7C60208D55B024E
:1016200006D50120000510622046FFF76AFFF2E7A9
:10163000030605D50B0603D5616E0029DFD1EAE765
:101640004006E8D54806E6D51368204640218B437E
:10165000136065670021616600F0CBF9DBE70000ED
:101660000F0800000521000810B5040003D0606FCA
:10167000002802D007E0012010BD00217020015594
:10168000204600F027F82420606720680168490898
:1016900049000160204600F0A7FD0128ECD0606AF7
:1016A000002802D0204600F097FC206841680922FB
:1016B000D20291434160206881682A22914381606F
:1016C00020680168012211430160204600F0EAFC15
:1016D00010BD0000F0B587B0044614216846FEF73F
:1016E00085FD264F01212668002225484904022352
:1016F00003240125BE421DD18769CE10374387617F
:1017000087693740059746690E43466140690193F2
:10171000084005906002009002AE34C60920694678
:10172000C006FFF707F8002211461B20FFF71AF941
:101730001B201EE0134FBE421DD1C6690E43C66179
:10174000C6690E40059646690E434661406901939D
:10175000084005900C20009002AE34C6092069466E
:10176000C006FEF7E7FF002211461C20FFF7FAF83B
:101770001C20FFF7EBF807B0F0BD00000038014077
:101780000010024000440040F0B5836F202B54D17C
:1017900000290AD0002A08D08568DC01A54206D1BC
:1017A0000369002B03D1CB0701D00120F0BD034614
:1017B00060331E7C012E40D001261E744165014617
:1017C00040310A834A830022FF260266A54204D1E3
:1017D0000569002D13D11A4D0AE07F27002D09D08D
:1017E00001263607B5420CD10569002D05D03F25ED
:1017F0008D8307E00569002D01D08F8302E08E8381
:1018000000E08A83C2672221816701688D68012612
:1018100035438D608168A14202D1016900290AD057
:10182000084901661A7400680168FF2221321143D9
:1018300001600020F0BD0449F3E70220F0BD000084
:10184000FF0100009121000839210008F8B5064683
:1018500000682E4900252E4C88421FD160782D4FFC
:10186000002804D13D54401CC0B26428FAD3FFF7CD
:1018700019F82169411A7D20C000814218D360788F
:10188000002815D065700120A070FFF70BF82049E3
:1018900020610122491D2048FFF776FF1F4930686B
:1018A000884229D11B4EE0786436002808D00CE02D
:1018B0001748401D017860783954401C6070E4E797
:1018C0003554401CC0B26428FAD3FEF7EBFF6169BF
:1018D000411A7D20C00081420FD3E07800280CD04F
:1018E000E57001202071FEF7DDFF094960610122EA
:1018F000C91D0B48FFF748FFF8BD0548C01D01781A
:10190000E0783154401CE070EDE700000038014001
:101910000000002034000020280200200044004085
:10192000A8020020FFB50446406F83B017460D465D
:1019300020285CD1002D0AD0002F08D0A168C0015A
:10194000814207D12069002804D1E80702D0012094
:1019500007B0F0BD204660300290007C012846D0E0
:101960000298012101740020E06721206067FEF7E2
:1019700099FF264640360190378277820120A16880
:101980000003814202D12069002802D02F460025A1
:1019900011E000270FE000228021204600F0C8FC63
:1019A000002815D1002F15D02168387808857F1CB4
:1019B000708A401E7082708A019B002806980090F1
:1019C000E9D100224021204600F0B2FC002808D0D6
:1019D0000320BDE728882168C005C00D0885AD1C1F
:1019E000E6E720206067029900200874B0E7022033
:1019F000AEE77047FEE700003EB500241B491C48D7
:101A000000940194029412C0046004224460C260F5
:101A100001218160047444748474C474FF22C2324E
:101A20008461426102461832147101620838FEF77F
:101A3000A9FC002801D0FEF70DFC01200003019055
:101A400000040290009469460948FEF705FC00284E
:101A500001D0FEF7FFFB0720009069460448FEF71F
:101A6000FBFB002801D0FEF7F5FB3EBD0024014042
:101A70004001002010B50E480C4901601021416062
:101A8000002103228160920402610122C1601205DB
:101A90004261017641768176C17601774177FEF722
:101AA00059FD002801D0FEF7D5FB10BD00640040B1
:101AB00080010020F0B587B014216846FEF796FB40
:101AC00024484269012189050A43426142690A406A
:101AD0000592426949110A43426142690A400592EE
:101AE000426949000A43426140691B4D084009268A
:101AF000F6060590002229463046FEF7CDFE174F28
:101B00000022E2213846FEF7C7FE42200024009062
:101B10000194694602943046FEF70CFE00950125BB
:101B200002946946304601950394FEF703FE019442
:101B30006946384600950294FEF7FCFDE2200090CD
:101B400002946946019503943846FEF7F3FD07B009
:101B5000F0BD000000100240308100000004004889
:101B600010B50948074901600021416081602F22BA
:101B70000161C2608161FFF7ABFA002801D0FEF776
:101B800069FB10BD00200040E801002010B58EB0B8
:101B900000240794089409940A940B941C21684625
:101BA0000C94FEF723FB1F491F4812C00460846099
:101BB0001E49046141600838FFF78AFA002801D005
:101BC000FEF748FB01200003079007A91648FFF71E
:101BD000C1FA002801D0FEF73DFB1348FFF765FC72
:101BE000002801D0FEF736FB0B940BA90E480C948D
:101BF000FFF742FA002801D0FEF72CFB602000908E
:101C0000019402940022694604940748FFF7E5FB1B
:101C1000002801D0FEF71EFB0348FFF7B5FB0EB00E
:101C200010BD000000040040A8010020AF04000027
:101C300010B50C480A4901604B21C90141600021DF
:101C40008160C16001618161C1610C2201624261F8
:101C50004162FFF709FD002801D0FEF7FBFA10BD35
:101C6000003801402802002010B50C480A490160E4
:101C70004B21C901416000218160C1600161816126
:101C8000C1610C22016242614162FFF7EDFC002854
:101C900001D0FEF7DFFA10BD00440040A80200208A
:101CA00070477047704710B5FEF702FE10BD70B563
:101CB00098B034216846FEF799FA00240D940E94EA
:101CC0000F94182111A81094FEF790FA0125112005
:101CD0000595009001951020069000030A900001E0
:101CE00002260B9009960C946846FEF7A9FF072080
:101CF0000D900F9401210E9610940DA8FEF7BCFED6
:101D000011A811951394FEF731FE18B070BD7047FD
:101D100010B50248FFF787FA10BD0000E801002067
:101D2000F0B502681A4B0124A4071A4D984203D05B
:101D3000A04201D0A84203D17026B2434E6832437C
:101D4000154E164F98420AD0A04208D0A84206D09D
:101D5000134CA04203D0B04201D0B84204D10324B6
:101D60002402A243CC6822438024A2434C6922432C
:101D700002608A68C2620A688262984203D0B042F6
:101D800001D0B84201D10969016301214161F0BD6F
:101D9000002C014000040040004401400048014084
:101DA0000020004030B58468FF252D021B0213433C
:101DB000AC430B432343836030BD826870239A4356
:101DC0000A4307210A43826070470000F0B5026AA7
:101DD000520852000262056A436882697024A24375
:101DE00092080C6892001443022295438A68134EAD
:101DF0002A43114DA84204D0B04202D0104FB8423D
:101E000006D10827BA43CF681743042297433A46BE
:101E1000A84204D0B04202D0094DA84206D1032501
:101E20002D02AB434D691D438B692B434360846195
:101E3000496841630262F0BD002C0140004401404A
:101E40000048014070B5026A10239A430262046A96
:101E50004368826973252D02AA430D682D0215433C
:101E6000202294438A6812012243104CA04208D1D8
:101E70001446CA688026B443120122434024A24378
:101E800005E00B4CA04202D00A4CA04208D103242A
:101E9000A402A3434C69A4001C438B699B00234309
:101EA0004360856149688163026270BD002C014016
:101EB000004401400048014070B5026AFF2301332D
:101EC0009A430262046A4368C2697025AA43920871
:101ED0000D68920015430122520294438A6812024F
:101EE0002243104CA04207D1C414A243CC68240260
:101EF00022430615B24305E00B4CA04202D00B4C26
:101F0000A04208D103242403A3434C6924011C43A9
:101F10008B691B0123434360C5614968C163026249
:101F200070BD0000002C0140004401400048014009
:101F300030B5026A01231B039A430262056A4268B4
:101F4000C36973242402A3430C6824021C430123A5
:101F50005B039D438B681B032B430A4DA84205D0AE
:101F6000094DA84202D0094DA84205D10125AD0373
:101F7000AA434D69AD012A434260C46149680164C6
:101F8000036230BD002C0140004401400048014084
:101F900030B5036A046A6408640004628469F02549
:101FA000AC43120122430A24A3430B438261036220
:101FB00030BD30B5036A1024A34303628469036A09
:101FC0000F252D031203AC432243A024A343090190
:101FD00019438261016230BD10B5818CC90707D0F9
:101FE00001684A6801235B049A43836A1A434A6082
:101FF000818C890707D501684A6801231B049A432D
:10200000C36A1A434A60818C490707D501684A6848
:1020100001239B049A43036B1A434A60818C09078E
:1020200007D501684A680123DB039A43436B1A43CF
:102030004A60818CC90607D50268916801231B0399
:102040009943836B19439160818C890607D5016898
:102050008A6801235B039A43C36B1A438A60818CAD
:10206000490612D503685A6801210905046C8A43A0
:1020700022435A60026C8A4207D1026851680323E6
:102080005B059943436C19435160818C090607D560
:1020900001684A680123DB04806C9A4302434A606A
:1020A00010BD0000F8B500260446C667FEF7FAFB2F
:1020B000054620680068124F000709D501212B460C
:1020C000002249052046009700F032F900280DD182
:1020D0002068006840070BD501212B4600228905A6
:1020E0002046009700F024F9002801D00320F8BD15
:1020F00020206067A067603426740020F8BD0000CF
:10210000FFFFFF0110B5406A0022014640314A83BB
:102110004A82FFF7F7F910BD01680A68FF232133EF
:102120009A430A6001688A68520852008A60202136
:10213000816700210166704710B5014640318B8BE5
:10214000846F0268222C04D09069082108439061B2
:1021500010BD928C446D1A402280426D921C4265E3
:102160004A8B521E4A83498B0029F1D101680A68C3
:10217000FF2321339A430A6001688A68520852009B
:102180008A602021816700210166FFF75FFB10BD97
:1021900010B5014640318B8B846F0268222C04D02D
:1021A000906908210843906110BD928C1A40436DDC
:1021B0001A70426D521C42654A8B521E4A83498BEB
:1021C0000029F1D101680A68FF2321339A430A608C
:1021D00001688A68520852008A60202181670021C4
:1021E0000166FFF733FB10BD70B5044680682169B6
:1021F000E2690843616900251143226808431168B8
:10220000444B1940014311602168486803221203BE
:102210009043E26810434860A169206A226808433D
:1022200091680B231B029943014391603A4920684E
:10223000884210D13948006B8007800F11D00128E7
:1022400005D0022805D003280AD1022009E0042085
:1022500007E0082005E03249884201D1002000E073
:1022600010200122E169D2032E4E914228D100288C
:1022700006D0022807D0042817D0082844D11AE035
:10228000FEF784FC13E06168274A48088018FDF7D0
:102290004FFF80B201461039B14235D82149491C5F
:1022A00001400007400F084321E0FEF77FFC616812
:1022B00040004A08EAE76168012248081204E5E79D
:1022C000002806D0022807D0042813D008281BD1E4
:1022D00016E0FEF75BFC0FE06168144A480811E065
:1022E000FDF726FF80B201461039B1420CD82168B3
:1022F000C8600AE0FEF75AFC61684A081018EFE768
:10230000616848088018EBE70125002020666066B8
:10231000284670BDF369FFEF00380140001002400D
:1023200000440040EFFF00000024F40000127A0097
:10233000FFB581B005460F46044660350A9E38E079
:10234000701C36D0FEF7AEFA0499401AB04221D87C
:10235000002E1FD02068016849072AD5C069C043F4
:10236000000526D401202168C002086220680168A7
:10237000FF22A13291430160206881684908490029
:10238000816020206067A067E06700202874032038
:1023900005B0F0BD20680168FF22A13291430160C1
:1023A0002068816849084900816020206067A06733
:1023B000EBE72068C1693846884305D000210398BF
:1023C0008142BDD00020E3E70121F8E710B50248C3
:1023D000FFF79AF810BD00002802002010B502484F
:1023E000FFF792F810BD0000A8020020F8B5040C19
:1023F0008BB2264682B25E430D0C1046370C584312
:10240000360480190021794116466E43370C360494
:102410008019794126466E438919F8BD8307FF224A
:10242000DB0E9A408907090E9940002808DB8308D3
:1024300009489B001B1818689043084318607047B0
:102440000007000F0838830804489B001B18D86950
:1024500090430843D861704700E400E000ED00E0DD
:1024600002E008C8121F08C1002AFAD1704770475D
:10247000002001E001C1121F002AFBD170470000BB
:10248000FEF71EFAFFF713FCFFF714FBFFF7B4FA91
:10249000FFF7F0FAFFF77AFBFFF7CAFBFFF7E4FB61
:1024A000FFF75EFB012211491148FFF76DF9FF2488
:1024B00009250134ED06002221462846FEF7ECF9F5
:1024C0000A20FEF725F90BA1022000F01FF80122D7
:1024D00021462846FEF7E0F90A20FEF719F9022006
:1024E00000F00AF86420FEF713F9F5E70700002072
:1024F000A802002031323300012801D00248704781
:1025000001486438704700009800002070B57D25B0
:10251000ED0001280C46084608D0FDF772FE82B295
:102520002B4621460548FFF7FDF970BDFDF769FE12
:1025300082B22B4621460248F5E70000A80200209F
:102540002802002000000000000000000102030437
:102550000607080900000000010203047C250008AA
:10256000000000203400000060240008B0250008AE
:1025700034000020F4060000702400080000000071
:10258000000000000000000000000000000000004B
:10259000000000000000000000010203040506071F
:1025A00001000000040000000000000000127A009A
:04000005080000C12E
:00000001FF
