:020000040800F2
:10000000E017002051010008ED1F0008C11C000886
:1000100000000000000000000000000000000000E0
:10002000000000000000000000000000EF1F0008BA
:1000300000000000000000000F010008612000081F
:100040008101000881010008810100088101000888
:100050008101000881010008810100088101000878
:100060008101000881010008F1020008090300086D
:100070008101000881010008810100088101000858
:10008000810100080000000000000000E9200008D5
:100090000000000081010008F9200008810100082B
:1000A000000000008101000881010008F527000818
:1000B00005280008000000008101000881010008F7
:1000C0000448854600F002F900480047D928000896
:1000D000C046C046E0170020084B19680868203069
:1000E00080F30988022080F31488BFF36F8F3FBC30
:1000F000AE4608BC04BC62B6184700002C000020C5
:10010000EFF3108072B6704780F310887047EFF3FA
:1001100009800E4B1A6820381060F0C044464D46E6
:1001200056465F46F0C008B572B602F027FF62B6C9
:100130000CBC116808681030F0C8A046A946B24649
:10014000BB4680F309882038F0C818472C000020EF
:100150000C4880F308880C480168090E0B4A91424C
:1001600005D10B480B4901600B480C4901600C4854
:1001700080470C480047FEE7FEE7FEE7FEE7FEE7A4
:10018000FEE70000E0170020040000001F00000050
:1001900018100240010000000000014000000000B3
:1001A000E5200008C100000830B50B4601460020DC
:1001B0002022012409E00D46D5409D4205D31D466D
:1001C0009540491B2546954040191546521E002D65
:1001D000F1DC30BDF0B51FB40646002082B0054604
:1001E0004024019100901BE0019922460F463046C1
:1001F00000F020F8049A059B801A994110D310460C
:100200001946224600F052F8361A8F4101972246CD
:1002100001200021009F00F049F838184D4100905E
:100220002046641E0028DFDC019B009829463246E8
:1002300007B0F0BD10B5202A04DB0846203AD040B4
:10024000002110BD0B46D340D0402024A21A91407B
:100250000843194610BD03460B439B0703D009E032
:1002600008C9121F08C0042AFAD203E00B780370F1
:10027000401C491C521EF9D27047D2B201E00270F4
:10028000401C491EFBD270470022F6E710B513460A
:100290000A4604461946FFF7F0FF204610BD421CEF
:1002A0000178401C0029FBD1801A704710B5202A24
:1002B00004DB0146203A9140002010BD91402023EC
:1002C0009C1A0346E3401943904010BD064C01259B
:1002D000064E05E0E36807CC2B430C3C98471034EE
:1002E000B442F7D3FFF7F0FE80320008A0320008D6
:1002F00010B5034800F098FA024800F095FA10BDD6
:10030000E4050020A005002010B5034800F08CFA99
:10031000024800F089FA10BD6C0600202806002073
:1003200010B504460068054940181421FFF73CFF4A
:10033000800020640248E06310BD0000F8FFFDBFAC
:100340000000024030B5056C0124AC40C56B6C6008
:10035000046863604368102B036803D099600068E9
:10036000C26030BD9A600068C16030BD7047000057
:10037000F8B50025044620340095227D012A3BD0A3
:100380000122227503689E68760776D43F4F4E6837
:10039000BE4254D09E6A0F78BA4016439E62012333
:1003A000C26A1B079A421FD0012A1DD0022A1BD005
:1003B000032A19D0042A17D0052A15D0062A13D0EB
:1003C000072A11D002688B6856697607760FB34208
:1003D0000AD05369DB08DB005361006842690B7A7D
:1003E0005B075B0F1A4342610868102806D011288A
:1003F00004D0122802D045E00220F8BD244A9368B8
:10040000102809D011280AD0012000060343936068
:100410000868102806D035E00120C005F6E7012065
:100420008005F3E71C481B490068FFF7BDFE0A2161
:10043000484300E0401E00900028FBD122E0986A6B
:100440000E78B240904398620868102803D01128B3
:1004500001D0122816D10E498A68102807D0112819
:1004600008D00120000682438A600BE005E00120ED
:10047000C005F8E701208005F5E7816B20221143D4
:1004800081630125002020752846F8BD0110000079
:100490000027014040420F0028000020F8B5002648
:1004A0000446002805D0A06B25462035002802D040
:1004B00007E00120F8BD0020E0632875204600F029
:1004C000A9F8A06B1022C006002870DB20688168A4
:1004D00049076CD4A16B1301994302231943A1630B
:1004E00081688907890F012905D10168C9070FD1E2
:1004F000C16809040CD4C16818239943A36819433F
:10050000C160206801696368890089081943016135
:100510002068C1683D4B1940C160207E617E800328
:10052000C9030843A17E4B031843A36A012B02D0E1
:1005300001231B0300E000231843E36818432369E9
:10054000022B09D0002318432B79E57E5B0018436A
:100550000123012D02D00AE00423F4E7002927D06B
:10056000A16B20252943A163E16B1943E163E16994
:100570000D46FF3DC23D02D0256A2943084321684C
:10058000CD680543CD600125E16A2D07A94213D04E
:10059000012911D002290FD003290DD004290BD035
:1005A000052909D0062907D0072905D010E028E041
:1005B000012109040843DAE721684D69ED08ED00DF
:1005C0004D6121684D69A78D7F077F0F3D434D61C8
:1005D0002168C9680E4D2940814207D10020E0639F
:1005E000A06B80088000401CA06308E0A06B022183
:1005F00088431043A063E06B1843E0630126304654
:10060000F8BDA06B1043A063F8E700001902FEFFDD
:10061000E7FF3F8310B586B0044614216846FFF714
:1006200033FE10492068884219D10F48826941156C
:100630000A43826182690A400592426909020A43BB
:10064000426140690840059081200090032001909C
:100650000020029009206946C00600F093F906B018
:1006600010BD00000024014000100240F8B5040055
:1006700005D0254620352878002802D004E0012046
:10068000F8BD204600F07AF8206801680222914304
:10069000016000F02FFA012706467F0404E000F015
:1006A00029FA801B0A2811D8206840688007F6D4F0
:1006B0002068016801221143016000F01BFA064620
:1006C0000AE000F017FA801B0A2805D9606A38434F
:1006D000606205202870D2E720684068C007F0D02B
:1006E000217E8020012921680A683BD082430A606C
:1006F000617E4020012921680A6835D082430A6062
:10070000A17E2020012921680A682FD082430A6037
:10071000E17E1020012921680A6829D002430A607D
:10072000217F0820012921680A6823D082430A60BA
:10073000617F0420012921680A681DD082430A6074
:10074000E168A06862690843216911430843616850
:10075000491E08432168C86100206062012028709A
:100760000020F8BD0243C2E70243C8E70243CEE7D8
:100770008243D4E70243DAE70243E0E710B586B0EC
:10078000044614216846FFF77FFD1349206888421C
:100790001FD11248C269012149060A43C261C269D8
:1007A0000A400592426909120A43426140690840C1
:1007B00005900320C00200900220019000200290CA
:1007C000032003900420049009206946C00600F02D
:1007D000D9F806B010BD00000064004000100240CF
:1007E00070B50024014620314A78022A03D0042142
:1007F0008163012416E0026813680E25AB43136081
:10080000026813685B085B0013600122056C1346E5
:10081000AB40C56B6B604A7000220A70416B0029C7
:1008200000D08847204670BDF0B4C16B0D680168E8
:100830000C680422066C1346B3402B420DD06307AC
:100840000BD50B689B0602D40B6893430B60016CBD
:100850008A40C16B4A60C16A19E00227B74002466C
:100860002F4001232032002F15D0A70713D50C6885
:10087000A40604D40C680A25AC430C605370036CC6
:1008800002219940C36B596000211170816A0029CF
:1008900016D0F0BC08470827B7402F4210D02407D5
:1008A0000ED50C680E25AC430C60046C1946A140B3
:1008B000C46B61608363537000211170016BE6E7C4
:1008C000F0BC704770B5040021D0022120462030D2
:1008D00005464170226811680E48A36801406068AF
:1008E00026691843E3683343184363691843A369CF
:1008F0001843E3691843084310602046FFF710FDD2
:100900000021A163012068702970084670BD012094
:1009100070BD00000FC0FFFFF8B504468C462030C4
:1009200001780025012909D00126067041780027A9
:10093000012905D0077002252846F8BD0220F8BD20
:1009400002214170A76320680168490849000160DD
:1009500061462046FFF7F6FCE06A0028206801683F
:1009600002D00E22114306E00A22114301602068E2
:1009700001680422914301602068016831430160ED
:10098000DAE70000FCB5002301249CE027462A4654
:100990009F403A4073D04D68012D05D0022D03D001
:1009A000112D01D0122D16D185680326AC465D00AD
:1009B000AE46AE406546B543AC46CE687546AE40E1
:1009C00065462E43866046680D79BE43ED06ED0F01
:1009D0009D4035434560C6685F000325BD40AE4677
:1009E000AE4335468E68BE402E43C6604E68022E2A
:1009F00001D0122E14D1DE08B60036180196366AE0
:100A00005D07B446EE0E0F25B54000966646AE4330
:100A1000B4460D69009EB54066462E43019D2E6288
:100A200006687546AE430D79AD07AD0FBD40354341
:100A300005604D68ED0045D5264DAE692643AE6193
:100A4000AD699E08ED07ED0F0095234DB6007519B1
:100A5000AC46AD689E07360F0F27B740BD43092748
:100A6000FF06B84201D100270BE01C4FB84201D16C
:100A7000012706E01A4FB84202D1022701E021E027
:100A80000527B7402F436546AF60164E35684F685F
:100A90009543FF0300D51543356075684F6895434E
:100AA000BF0300D515437560B5684F689543FF02D5
:100AB00000D51543B560F5684F689543BF0200D572
:100AC0001543F5605B1C0A681546DA4000D05DE707
:100AD000FCBD00000010024000000140000400487E
:100AE0000008004800040140002A01D081617047DD
:100AF0008162704701488068704700001C00002038
:100B00000248816802788918816070471C000020C3
:100B100010B506480168102211430160002000F062
:100B200007F800F041F8002010BD0000002002404E
:100B300000B5014687B00022162000F055F81620B7
:100B400000F046F813488269012189040A43826152
:100B500080690840059004A9684600F059F900F042
:100B600073F90D49FFF720FB0D490C4A0A600D4A45
:100B7000401ECA604860002008618860084600F096
:100B8000EDFB002802D0012007B000BD044800F0B2
:100B900027FCF9E70010024040420F0000480140E6
:100BA000B0060020E703000008B50848816901226B
:100BB00011438161816911400091C26901040A43B6
:100BC000C261C0690840009008BD000000100240EA
:100BD000002805DBC106C90E0120884001490860D4
:100BE0007047000000E100E010B501F02BFE10BDE1
:100BF000F8B5044600683E4DC00352D5E8690026AA
:100C0000C00007D4E96928040143E961E9690140AA
:100C10000126009137480168C90510D40168821582
:100C200011430160FFF766FF074604E0FFF762FF2C
:100C3000C01B642824D82F480068C005F6D5286A50
:100C400003273F02384020D06168394081421CD0E0
:100C5000286A2A6AB843012109040A432A622A6AD7
:100C60008A432A622862C0070FD0FFF743FF009033
:100C700008E0FFF73FFF0099411A1F48814201D960
:100C80000320F8BD286A8007F3D5286A6168B84355
:100C900008432862002E04D0E9690120000781433F
:100CA000E9612078C00705D0286BA1688008800022
:100CB000084328632078800605D5286B10218843D7
:100CC000E168084328632068800305D5286B8021EC
:100CD00088436169084328632088400505D5286B4F
:100CE000402188432169084328630020F8BD0000A3
:100CF000001002400070004088130000F8B50F4655
:100D000006005FD03D4D2868C007C00FB84209D229
:100D1000286840084000384328602868C007C00F92
:100D2000B8424FD13068364C81070CD5400704D506
:100D3000606807210902084360606068F021884309
:100D4000B168084360603078C0072CD07068012813
:100D500010D0022811D0032812D021688907002959
:100D600030DA61688908890001436160FFF7C2FEDB
:100D7000009011E021688903F1E721688901EEE71D
:100D8000616BC903EBE7FFF7B5FE0099411A1D48F7
:100D9000814201D90320F8BD60680C2108407168C8
:100DA00089008842EFD12868C007C00FB8420BD92C
:100DB000286840084000384328602868C007C00FF2
:100DC000B84201D00120F8BD3078400706D56068F0
:100DD000072109028843F1680843606000F044F885
:100DE0006168094A0906090F515CC8400749086053
:100DF0000020FFF79DFE0020F8BD0000002002400B
:100E000000100240881300005C3200082800002017
:100E100010B5072202600A4A53689B079B0F436084
:100E20005368F02423408360526807231B021A4052
:100E3000C26004480068C007C00F086010BD000011
:100E4000001002400020024004480549006849683B
:100E5000044A4905490F515CC840704728000020EA
:100E6000001002406C32000830B519A30FCB89B0D6
:100E70006C460FC41AA30FCB0FC41D4A51680C2037
:100E80000B4603401B48042B05D01B4D082B04D0F8
:100E90000C2B00D1284609B030BD8B021B0F6C46CD
:100EA000E45CD26A04AB1207120FC9039A5C890F83
:100EB000022901D0032901D0002301E000232846A4
:100EC0000021FFF787F9214601F0A4FCE3E70000C9
:100ED00002030405060708090A0B0C0D0E0F10107B
:100EE0000102030405060708090A0B0C0D0E0F107A
:100EF0000010024000127A00006CDC02FEB5040013
:100F000070D02078F94EFA4DC00748D068680007C5
:100F1000800F01281FD068680007800F022804D1C5
:100F20006868C003800F022815D06168012919D0B4
:100F300001208004002901D0052917D02968B14378
:100F40002960296881432960606800281BD0FFF769
:100F5000D1FD074613E02868800320D5606800288B
:100F6000CED01CE0286830432860EDE729680143B3
:100F70002960F7E7FFF7BEFDC01B642870D828681A
:100F80008003F7D50BE0FFF7B5FD074604E0FFF758
:100F9000B1FDC01B6428F1D828688003F7D42078FD
:100FA00080073FD568680007800F14D06868000785
:100FB000800F022804D16868C003800F01280AD07E
:100FC000E068002828681ED0012108432860FFF748
:100FD00091FD07460CE0286880070CD5E0680128E1
:100FE00000D108E080E1FFF785FDC01B0228C5D8CD
:100FF00028688007F7D52868F82188432169C90047
:10100000084328600EE0400840002860FFF772FDAA
:10101000074604E0FFF76EFDC01B0228AED8286823
:101020008007F7D42078000723D5E0690028686A94
:101030000FD0012108436862FFF75CFD074604E01A
:10104000FFF758FDC01B022898D8686A8007F7D5BB
:101050000FE0400840006862FFF74CFD074605E0DE
:10106000C3E0FFF747FDC01B022887D8686A8007E6
:10107000F7D4207804274007002861DA0020019087
:10108000E869C00008D4E969B8060143E961E96983
:10109000014001200091019096480168C90511D4D2
:1010A0000168821511430160FFF724FD009005E0FF
:1010B000FFF720FD0099401A642898D88D480068F1
:1010C000C005F5D5A06801280AD0002801D0052860
:1010D00011D0286A400840002862286AB84302E01C
:1010E000286A012108432862A068002812D0FFF76F
:1010F00001FD00900AE0286A38432862F0E7FFF714
:10110000F9FC0099411A7C4881426ED8286A800710
:10111000F5D50DE0FFF7EEFC009006E0FFF7EAFCE6
:101120000099411A744881425FD8286A8007F5D433
:101130000198002804D0E969012000078143E96192
:101140002078C00635D5606901280CD0401D686B39
:1011500024D038436863686B400840006863FFF739
:10116000C9FC074622E0686B38436863686B01215D
:1011700008436863FFF7BEFC074604E0FFF7BAFCCC
:10118000C01B022831D8686B8007F7D5686BF8213F
:101190008843A169C900084368630AE0B8436863EB
:1011A000F4E7FFF7A7FCC01B02281ED8686B800776
:1011B000F7D42078800637D568680007800F0328A9
:1011C00014D068680007800F022804D16868C00343
:1011D000800F03280AD0206A0028686B16D030439D
:1011E0006863FFF787FC06460CE062E0686BC003AB
:1011F0001AD5206A012877D116E0FFF77BFC801B07
:10120000022856D8686BC003F7D50DE0B043686379
:10121000FFF770FC064604E0FFF76CFC801B022819
:1012200047D8686BC003F7D4606A002866D0696845
:101230000907890F022942D00126360602282868AC
:1012400005D0B0432860FFF755FC044633E0B043B7
:101250002860FFF74FFC074604E0FFF74BFCC01B7C
:10126000022826D828688001F7D4E86A216B000993
:1012700000010843E862A16AE06A084369687B22CA
:10128000D203914308436860286830432860FFF721
:1012900031FC044604E0FFF72DFC001B022808D8AF
:1012A00028688001F7D529E0FFF724FC001B0228FD
:1012B00001D90320FEBD28688001F5D41EE0012875
:1012C000F8D06868E96A0322D203A36A02409A420E
:1012D0000AD10907226B090F914205D10F21890418
:1012E0000840E16A884209D00120FEBD00000100EB
:1012F0000010024000700040881300000020F4E756
:1013000070477047F0B502462032137F012B1ED084
:10131000012515770223537706687468B368702730
:10132000BC430F682743776000680A4CA04205D091
:10133000AC07A04202D0084CA04204D180244968E6
:10134000A34319438160557700201077F0BD022038
:10135000F0BD0000002C01400004004070B5040006
:1013600005D025462035687F002802D006E0012000
:1013700070BD00202877204600F00AF80220687728
:10138000211D206800F0C0FE01206877002070BD9C
:1013900008B5104A01681048914207D1C26902217C
:1013A0000A43C261C0690840009008BD0B4A9142DF
:1013B000FBD1C26989150A43C261C0690022084095
:1013C000009011461320FFF70FFC1320FFF700FCDD
:1013D00008BD000000040040001002400020004052
:1013E0000268D36801210B43D3600068826852070A
:1013F000520F062A02D002680A430260002070479A
:10140000F8B5054604462035287F012817D0012667
:101410002E7702206877226890687727FF23B843E9
:101420001B02984390600A68502A31D00EDC202AB3
:101430004BD006DC002A48D0102A3AD145E00220E1
:10144000F8BD302A41D0402A33D136E0602A27D077
:10145000702A12D001200003121A2AD0824228D109
:10146000CB684A688968206800F09DFE2068816822
:1014700001229203114381601BE0CB684A688968AE
:10148000206800F090FE216888683843886010E08A
:10149000CA684968206800F07BFF5021206806E098
:1014A000CA684968206800F084FF6021206800F065
:1014B00085FE6E7700202877F8BDCA6849682068E5
:1014C00000F066FF40212068F1E711462068EEE752
:1014D000704770B50446006801690025C943890753
:1014E000002915DBC168C943890711D4E91E0161D0
:1014F00001202077206880698007204602D0FFF70E
:10150000E7FF04E000F0BEF8204600F03FF9257741
:1015100020680169C943490717D4C168C94349070D
:1015200013D40421C9430161022020772068806917
:101530008005800F204602D0FFF7CAFF04E000F0CC
:10154000A1F8204600F022F9257720680169C943F7
:10155000090716D4C168C943090712D40821C94331
:101560000161042020772068C0698007204602D0EE
:10157000FFF7AEFF04E000F085F8204600F006F922
:10158000257720680169C943C90617D4C168C943D2
:10159000C90613D41021C9430161082020772068AF
:1015A000C0698005800F204602D0FFF791FF04E05C
:1015B00000F068F8204600F0E9F825772068016916
:1015C000C943C90708D1C168C943C90704D1891EE5
:1015D0000161204600F004F920680169C943090649
:1015E00009D4C168C943090605D48021C9430161F2
:1015F0002046FFF785FE20680169C943490609D4E2
:10160000C168C943490605D44021C9430161204648
:1016100000F0FCF820680169C943890609D4C16853
:10162000C943890605D42021C94301612046FFF73B
:1016300068FE70BD10B586B0044614216846FEF7FA
:1016400023FE0D492068884214D10C4842690913D1
:101650000A43426140690840059010200090022032
:1016600001900020029003900120049069460448F4
:10167000FFF788F906B010BD0004004000100240DA
:10168000000400487047F8B5064604462036307F0F
:101690000D4601280DD001203077022070770427F5
:1016A000002A08D0042A16D0082A2AD00C2A4DD1A4
:1016B00037E00220F8BD206800F088FD20688169CD
:1016C00008221143816120688169B94381612068E2
:1016D00081692A6912E0206800F0B4FD20688269FF
:1016E0000121C9020A4382612068816901229202B4
:1016F00091438161206881692A69120211438161E5
:1017000024E0206800F0D8FD2068C26908210A435F
:10171000C2612068C169B943C1612068C1692A6991
:1017200012E0206800F004FE2068C1690122D202A4
:101730001143C1612068C269012189028A43C261E3
:101740002068C1692A6912021143C16101207077C2
:1017500000203077F8BD70B5040005D0254620354F
:10176000687F002802D006E0012070BD00202877A5
:10177000204600F00AF802206877211D206800F05A
:10178000C3FC01206877002070BD704770470000DF
:1017900010B504460068012200F0F8FC0D482168ED
:1017A000814205D00C48814202D00C48814204D1CC
:1017B000486C0122D20310434864206881684907BD
:1017C000490F062903D0016801221143016000205E
:1017D00010BD0000002C01400044014000480140C1
:1017E00010B5074A0168914203D106494A68521C64
:1017F0004A6000680449884201D1FFF781F910BDB1
:101800000020004000000020004801407047704761
:1018100070470000F8B502680446D0691168936803
:10182000524D05402E462025002E68D0DE07F60FCB
:10183000FF2721370F40374375D0C70706D0CF05A4
:1018400004D501271762E26F3A43E267820708D5A1
:10185000DA0706D0276802223A62E26F04273A4389
:10186000E267420708D5DA0706D0236804221A6225
:10187000E26F02231A43E267020709D50A462A40AB
:10188000324305D0236808221A62E36F1343E367EB
:10189000020508D54A0106D501222368D2021A6240
:1018A000E26F2A43E267E26F002A30D0800606D555
:1018B000880604D5216E002901D020468847E06FB4
:1018C00021688968490602D42821084224D020468C
:1018D00000F085FE20688168490619D5816840229C
:1018E00091438160E06E002812D021494163E06E8F
:1018F000FEF776FF00280AD0E06E416B06E0860610
:1019000011D58E060FD5216E1DE020468847F8BD03
:101910002046FFF77DFFF8BD2046FFF779FF002046
:10192000E067F8BDFFE7C60208D55B0206D50120D7
:10193000000510622046FFF76AFFF2E7030605D5AF
:101940000B0603D5616E0029DFD1EAE74006E8D532
:101950004806E6D51368204640218B43136065672F
:101960000021616600F0AAF9DBE700000F08000023
:101970000525000810B5040003D0606F002802D0D0
:1019800007E0012010BD002170200155204600F025
:1019900027F8242060672068016849084900016031
:1019A000204600F035FE0128ECD0606A002802D005
:1019B000204600F011FD206841680922D2029143BF
:1019C0004160206881682A22914381602068016813
:1019D000012211430160204600F064FD10BD0000AB
:1019E000F0B587B0044614216846FEF74DFC544F0D
:1019F0000121266853484904022303220025BE42E0
:101A00004AD18769CE103743876187693740059788
:101A100046690E43466140696E4608400590500293
:101A2000039229C60120049009206946C006FEF7EA
:101A3000A9FF4548454E21C635608020B560F56058
:101A400087017761356170604048083EFEF73AFFD4
:101A5000002801D0FEF78AFCE66674623A483B4EE5
:101A60001438443630601020B5607060356175619F
:101A7000F7618020B561F0603046FEF723FF002853
:101A800001D0FEF773FCA666002211461B2074628B
:101A9000FFF7AAF81B204EE02D4FBE424DD1C6697C
:101AA0000E43C661C6690E40059646690E434661FF
:101AB00040696E46084005900C20039229C601201B
:101AC000049009206946C006FEF75CFF1E481F4EC1
:101AD0002830883621C635608020B560F5608701E2
:101AE00077613561706030460838083EFEF7EAFEDF
:101AF000002801D0FEF73AFCE66674621248134EE5
:101B00001430CC3630601020B5607060356175617E
:101B1000F7618020B561F0603046FEF7D3FE002803
:101B200001D0FEF723FCA666002211461C20746239
:101B3000FFF75AF81C20FFF74BF807B0F0BD000084
:101B4000003801400010024030000240A005002093
:101B500000440040F8B50446806F20284DD100298C
:101B60000BD0002A09D00123A0681B03984206D19C
:101B70002069002803D1C80701D00120F8BD2546FF
:101B80006035287C012838D00120287458206165F0
:101B900002530026E6672220A067E06E002819D0D5
:101BA00017498162E16E1748C862E16E1648086302
:101BB000E06E13464663676D21683A462431E06E55
:101BC000FEF7AAFE002805D01020E0672E74202022
:101BD0006067D2E72E7420680168FF22013211434A
:101BE000016020688168012211438160206881685A
:101BF0004022114381600020F8BD0220F8BD0000A2
:101C0000612500089D2500081925000870477047C8
:101C1000F8B50446406F202847D100290BD0002A90
:101C200009D00123A0681B03984206D1206900282F
:101C300003D1C80701D00120F8BD25466035287CB6
:101C4000012832D00120287420464030E16402820D
:101C500042820026E66721206067A06E002819D026
:101C600013498162A16E1348C862A16E12480863CD
:101C7000A06E134646632768E16C3A462832A06E90
:101C8000FEF74AFE002805D01020E0672E742020C1
:101C90006067D0E72168402008622E742068816860
:101CA0008022114381600020F8BD0220F8BD0000B1
:101CB000A7250008D525000819250008704770479A
:101CC000FEE700003EB500241B491C480094019427
:101CD000029412C0046004224460C2600121816049
:101CE000047444748474C474FF22C23284614261F7
:101CF00002461832147101620838FEF7CFFB002843
:101D000001D0FEF733FB0120000301900004029094
:101D1000009469460948FEF72BFB002801D0FEF726
:101D200025FB0720009069460448FEF721FB0028A8
:101D300001D0FEF71BFB3EBD00240140B80300208C
:101D400010B50E480C4901601021416000210322AA
:101D50008160920402610122C16012054261017634
:101D600041768176C17601774177FEF77FFC0028C6
:101D700001D0FEF7FBFA10BD00640040F80300201C
:101D800008B50C4841690122114341614069104086
:101D90000022009011460A20FEF726FF0A20FEF7D7
:101DA00017FF002211460B20FEF71EFF0B20FEF747
:101DB0000FFF08BD0010024010B58EB01C220B4969
:101DC0006846FEF748FA0021684600F0C2FD084C5C
:101DD000064920601C221C3107A8FEF73CFA0021AE
:101DE00007A800F0B6FD60600EB010BD24320008F8
:101DF00014000020F0B587B014216846FEF744FABD
:101E000027484269012189050A43426142690A4023
:101E10000592426949110A43426142690A400592AA
:101E2000426949000A43426140691E4E0840092741
:101E3000FF060590002231463846FEF755FE002287
:101E4000E2211948FEF750FE0220002401256A46CF
:101E500031C269463846FEF795FD02946946384618
:101E6000009601950394FEF78DFD402000900194AB
:101E7000694602943846FEF785FD019469460A4892
:101E800000950294FEF77EFDE220009002946946E0
:101E9000019503940448FEF775FD07B0F0BD0000FE
:101EA00000100240308100000004004810B50948CD
:101EB000074901600021416081602F220161C260F9
:101EC0008161FFF74BFA002801D0FEF74FFA10BDF1
:101ED000002000406004002010B58EB0002407945C
:101EE000089409940A940B941C2168460C94FEF7FC
:101EF000CBF91F491F4812C0046084601E49046169
:101F000041600838FFF72AFA002801D0FEF72EFAC0
:101F100001200003079007A91648FFF771FA00286F
:101F200001D0FEF723FA1348FFF715FC002801D073
:101F3000FEF71CFA0B940BA90E480C94FFF7E2F97C
:101F4000002801D0FEF712FA60200090019402945C
:101F50000022694604940748FFF795FB002801D04A
:101F6000FEF704FA0348FFF765FB0EB010BD000052
:101F70000004004020040020AF04000010B50C480D
:101F80000A4901604B21C901416000218160C160A3
:101F900001618161C1610C22016242614162FFF70E
:101FA000E9FC002801D0FEF7E1F910BD003801403E
:101FB000A004002010B50C480A4901604B21C9015A
:101FC000416000218160C16001618161C1610C22B9
:101FD000016242614162FFF7CDFC002801D0FEF7AB
:101FE000C5F910BD0044004020050020704770472F
:101FF0000024204600F058FC0A2000F09DFC641CE0
:10200000E4B2652CF5D36524204600F04DFC0A208F
:1020100000F092FC641E2406240EF5D1E8E70000CF
:102020000B4C0025012000F089FE00280CD009A1EE
:10203000012000F0A7FE012000F090FE00202554B2
:10204000401CC0B28028FAD3012000F075FCE9E7FB
:102050008400002048454C4C4F2121210000000005
:1020600010B5FEF74DF8044601F028F8002803D01B
:1020700001200349000748602046FEF745F810BDDF
:1020800000ED00E070B598B034216846FEF7FCF82A
:1020900000240D940E940F94182111A81094FEF7AB
:1020A000F3F8012511200595009001951020069068
:1020B00000030A90000102260B9009960C946846D2
:1020C000FEF71CFF07200D900F9401210E9610942F
:1020D0000DA8FEF713FE11A811951394FEF788FDC5
:1020E00018B070BD7047000010B50248FFF7F1F955
:1020F00010BD00006004002010B50248FFF7E9F9A8
:1021000010BD0000B0060020F0B502681A4B012493
:10211000A4071A4D984203D0A04201D0A84203D18F
:102120007026B2434E683243154E164F98420AD07D
:10213000A04208D0A84206D0134CA04203D0B0421F
:1021400001D0B84204D103242402A243CC68224324
:102150008024A2434C69224302608A68C2620A68F2
:102160008262984203D0B04201D0B84201D10969DD
:10217000016301214161F0BD002C014000040040D9
:1021800000440140004801400020004010B5CB064B
:10219000DB0E0121046A99408C430462016A9A4073
:1021A0001143016210BD30B58468FF252D021B026A
:1021B0001343AC430B432343836030BD82687023D9
:1021C0009A430A4307210A4382607047F0B5026AC6
:1021D000520852000262056A436882697024A24371
:1021E00092080C6892001443022295438A68134EA9
:1021F0002A43114DA84204D0B04202D0104FB84239
:1022000006D10827BA43CF681743042297433A46BA
:10221000A84204D0B04202D0094DA84206D10325FD
:102220002D02AB434D691D438B692B434360846191
:10223000496841630262F0BD002C01400044014046
:102240000048014070B5026A10239A430262046A92
:102250004368826973252D02AA430D682D02154338
:10226000202294438A6812012243104CA04208D1D4
:102270001446CA688026B443120122434024A24374
:1022800005E00B4CA04202D00A4CA04208D1032426
:10229000A402A3434C69A4001C438B699B00234305
:1022A0004360856149688163026270BD002C014012
:1022B000004401400048014070B5026AFF23013329
:1022C0009A430262046A4368C2697025AA4392086D
:1022D0000D68920015430122520294438A6812024B
:1022E0002243104CA04207D1C414A243CC6824025C
:1022F00022430615B24305E00B4CA04202D00B4C22
:10230000A04208D103242403A3434C6924011C43A5
:102310008B691B0123434360C5614968C163026245
:1023200070BD0000002C0140004401400048014005
:1023300030B5026A01231B039A430262056A4268B0
:10234000C36973242402A3430C6824021C430123A1
:102350005B039D438B681B032B430A4DA84205D0AA
:10236000094DA84202D0094DA84205D10125AD036F
:10237000AA434D69AD012A434260C46149680164C2
:10238000036230BD002C0140004401400048014080
:1023900030B5036A046A6408640004628469F02545
:1023A000AC43120122430A24A3430B43826103621C
:1023B00030BD30B5036A1024A34303628469036A05
:1023C0000F252D031203AC432243A024A34309018C
:1023D00019438261016230BD10B5818CC90707D0F5
:1023E00001684A6801235B049A43836A1A434A607E
:1023F000818C890707D501684A6801231B049A4329
:10240000C36A1A434A60818C490707D501684A6844
:1024100001239B049A43036B1A434A60818C09078A
:1024200007D501684A680123DB039A43436B1A43CB
:102430004A60818CC90607D50268916801231B0395
:102440009943836B19439160818C890607D5016894
:102450008A6801235B039A43C36B1A438A60818CA9
:10246000490612D503685A6801210905046C8A439C
:1024700022435A60026C8A4207D1026851680323E2
:102480005B059943436C19435160818C090607D55C
:1024900001684A680123DB04806C9A4302434A6066
:1024A00010BD0000F8B500260446C667FEF722FB03
:1024B000054620680068124F000709D501212B4608
:1024C000002249052046009700F046F900280DD16A
:1024D0002068006840070BD501212B4600228905A2
:1024E0002046009700F038F9002801D00320F8BDFD
:1024F00020206067A067603426740020F8BD0000CB
:10250000FFFFFF0110B5406A0022014640314A83B7
:102510004A82FFF77DF910BD70B5446A606FA56F00
:102520002168896800260906002906DA212804D1D5
:1025300052200653204600F062F82068806840066A
:1025400006D5222D04D15A200653204600F047F824
:10255000E06F10210843E0672046FFF759F970BD8E
:1025600010B501468969406A202914D000225A21F9
:102570000A5201680A68FF2301339A430A6001681E
:102580008A68520852008A6001688A6840239A4328
:102590008A6020218167FFF739FB10BD10B5406AC2
:1025A000FFF735FB10BD10B501468969406A202947
:1025B0000DD0002252210A5201688A6880239A4372
:1025C0008A600068016840221143016010BDFFF776
:1025D00075FB10BD10B5406AFFF771FB10BD0168B7
:1025E0000A68FF2321339A430A6001688A68520807
:1025F00052008A60202181670021016670470168CE
:102600000A68C0239A430A6020214167704700008E
:1026100070B5044680682169E26908436169002554
:102620001143226808431168444B1940014311606B
:1026300021684868032212039043E268104348600F
:10264000A169206A2268084391680B231B02994301
:10265000014391603A492068884210D13948006BA3
:102660008007800F11D0012805D0022805D003284B
:102670000AD1022009E0042007E0082005E03249E1
:10268000884201D1002000E010200122E169D2033C
:102690002E4E914228D1002806D0022807D00428C7
:1026A00017D0082844D11AE0FEF7CEFB13E061688A
:1026B000274A48088018FDF777FD80B20146103997
:1026C000B14235D82149491C01400007400F084359
:1026D00021E0FEF7C9FB616840004A08EAE761684B
:1026E000012248081204E5E7002806D0022807D096
:1026F000042813D008281BD116E0FEF7A5FB0FE035
:102700006168144A480811E0FDF74EFD80B20146A9
:102710001039B1420CD82168C8600AE0FEF7A4FB6A
:1027200061684A081018EFE7616848088018EBE70D
:102730000125002020666066284670BDF369FFEF22
:10274000003801400010024000440040EFFF00004C
:102750000024F40000127A00FFB581B005460F4650
:10276000044660350A9E38E0701C36D0FEF7C2F988
:102770000499401AB04221D8002E1FD02068016869
:1027800049072AD5C069C043000526D40120216825
:10279000C002086220680168FF22A13291430160F3
:1027A0002068816849084900816020206067A0672F
:1027B000E06700202874032005B0F0BD20680168A0
:1027C000FF22A132914301602068816849084900D5
:1027D000816020206067A067EBE72068C169384608
:1027E000884305D0002103988142BDD00020E3E753
:1027F0000121F8E710B50248FFF70CF810BD000002
:10280000A004002010B50248FFF704F810BD000036
:1028100020050020F8B5040C8BB2264682B25E4338
:102820000D0C1046370C58433604801900217941AD
:1028300016466E43370C36048019794126466E439E
:102840008919F8BD8307FF22DB0E9A408907090E1C
:102850009940002808DB830809489B001B1818686A
:1028600090430843186070470007000F083883083A
:1028700004489B001B18D86990430843D8617047EF
:1028800000E400E000ED00E002E008C8121F08C10B
:10289000002AFAD170477047002001E001C1121FE1
:1028A000002AFBD17047000000B587B0602100917D
:1028B0000C21484301900020029002460490694692
:1028C0000448FEF7E0FE00210248FEF761FF07B072
:1028D00000BD000020040020FEF71AF9FFF7D2FB2C
:1028E000FFF788FAFFF74CFAFFF7ECF9FFF728FA41
:1028F000FFF7F2FAFFF742FBFFF75CFBFFF7D6FAB0
:10290000012000F02BFA022000F028FA04A1012097
:1029100000F038FAFFF750FA00F016F8FEE7000072
:1029200048454C4C4F212121000000000146002069
:10293000842900D0C81C704710B5002800D10120A0
:1029400000F0D0FA002010BD10B500F0E3FA00202E
:1029500010BD7FB50D46044641690820205E002960
:1029600011D0A16900290ED0FFF7E0FF6B46A269E4
:10297000616907C32B4622692168606800F07BFB10
:10298000039004B070BDFFF7D1FF03A9019100903F
:10299000208A2B4682B22168606800F043FB012840
:1029A00001D00020EDE70398EBE70000F8B5134CE9
:1029B0000F46666905462068001D00F0FBF9681C9B
:1029C00007D1002F05D021680D48091D00F036FA07
:1029D000F8BD2068751945602168B54204D2A06829
:1029E000091D00F013FAF8BD6068091D00F00EFA29
:1029F000206B8542F7D22563F8BD00002C00002033
:102A0000CC070020F8B5054600F024FA294C2069CF
:102A1000401C20612068284F002803D0E06900286E
:102A200027D02CE025602069012828D10026142019
:102A30007043C01900F0DCF9761C072EF7D31E484E
:102A40008C3000F0D5F91C48A03000F0D1F91A48BC
:102A5000B43000F0CDF91848C83000F0C9F9164874
:102A6000DC3000F0C5F914488C3060601430A06090
:102A700005E02068E96AC06A884200D82560E06AFB
:102A8000401CE062E86AA169884200D9A061142173
:102A90004843C019291D00F0D1F900F0E7F9E069B9
:102AA000002806D02068E96AC06A884201D200F096
:102AB0000DFAF8BD2C000020F006002010B50446E9
:102AC0004030407C002805D0012806D0022807D0DD
:102AD00072B6FEE7206B00F0D7F9204600F0D4F97B
:102AE00010BD000003210E488902420705D0C01D19
:102AF000C0080B4AC000821A891A0A4A00234118EA
:102B000009C20839C908C900183A11604B600B6046
:102B10000B1A0AC093600120C0075360D060704751
:102B2000E0070020780000200F4E104C3746C83FC9
:102B300011E000F08FF9F068C568281D00F03AF93F
:102B40002069401E2061E068401EE06000F08EF9C0
:102B50002846FFF7B3FFE0680028EAD1386801286B
:102B6000F9D900F0B3F9F6E7B80700202C000020EF
:102B7000FFB581B00C9C9000236B001F1818C6088D
:102B80000A9DF600700701D072B6FEE723180A5CB2
:102B900020331A750A5C002A02D0401C1028F5D395
:102BA0002046403000270090C770072D00D306252F
:102BB000E562A764201D656400F025F92046183001
:102BC00000F021F924610720401B6462A061E764E2
:102BD000009807743046049A019900F09FF820602D
:102BE0000B98002800D0046005B0F0BD30B5114945
:102BF00000E011460A688242FBD34B685C188442AD
:102C000003D1406818184860084643681C1894426D
:102C100009D1084C103C2468A24209D052689A1885
:102C200042600A6812680260814200D0086030BDCC
:102C30000460F9E778000020064841680968002927
:102C400005D04168C968C9684968016370470021B7
:102C5000C943FAE72C00002003480068401C72B604
:102C600000D0FEE7FEE7000080000020F8B5054632
:102C7000002700F07BF9284E3068002801D1FFF7CB
:102C800031FFF06805423FD1002D3DD0083568077F
:102C900008D06807400F0821081A4519680701D0B5
:102CA00072B6FEE7002D2FD0706885422CD81A48E6
:102CB000103001460C6801E020460C466168A942CC
:102CC00002D221680029F7D131688C421CD00768F4
:102CD0002168016060680837411B102908D9601914
:102CE000420701D072B6FEE741606560FFF77EFFE4
:102CF00061687068401A7060B268904200D2B0603B
:102D0000F0680143002003C400F036FA780701D0D0
:102D100072B6FEE73846F8BD6800002010B5012401
:102D2000031F24061C601B1F1960191F024B0B6038
:102D3000143940380A6010BD592C0008012805D00C
:102D40000448806F202803D0002070470248F8E72D
:102D50000120704720050020A004002010B50128A4
:102D600005D0032204490548FEF7F4FE10BD0249D0
:102D7000032280390248F7E70401002020050020E3
:102D8000A004002010B501280C46084607D0FDF726
:102D900086FA82B221460548FEF73AFF10BDFDF7DC
:102DA0007EFA82B221460248F6E7000020050020A4
:102DB000A00400204368826801699A6083684268C1
:102DC0005A604A68824201D182684A6000220261E8
:102DD0000868401E0860086870470000034B0360E5
:102DE000184654300860802010607047640100204D
:102DF0000146083100224160D243C1608260016116
:102E000000210160704700210161704730B50B68F7
:102E10005A1C02D00246083202E0026904E022464F
:102E2000546825689D42FAD953684B6099608A605E
:102E3000516008610168491C016030BD42684A6008
:102E400093688B6093685960916008610168491CC0
:102E50000160704772B604480168491C0160BFF305
:102E60004F8FBFF36F8F70478000002005490868BF
:102E7000002804D0401E086000D162B6704772B6C8
:102E8000FEE700008000002070B500281AD004463C
:102E90000D4D083C6068E968084201D172B6FEE752
:102EA0002268002A01D072B6FEE78843606000F015
:102EB0005DF860686968401868602046FFF796FE14
:102EC00000F05AF970BD000068000020012004499C
:102ED00000074860BFF34F8FBFF36F8F704700004C
:102EE00000ED00E010B502000FD00948806B00280B
:102EF00001D072B6FEE700F039F800211046FFF766
:102F000055FD00F039F9002801D1FFF7DFFF10BDB2
:102F10002C00002010B586B00024039405AA04A953
:102F200003A80494FFF75AFF0499039800940191B1
:102F30000290002309A10B48059A00F09CF80A4969
:102F40000028486308D072B60020C04308630120FF
:102F5000C8614C6100F03EF806B010BD49444C45D4
:102F600000000000292B00082C0000200248816B83
:102F7000491C8163704700002C00002010B51348E5
:102F8000816B002902D00121416210BD0021416204
:102F900081690F4A02E0002915D0491E14234B43D2
:102FA000D358002BF7D014234B439A185368144678
:102FB0005B6808345360A34201D15B685360DA68F0
:102FC0000260816110BD72B6FEE700002C00002097
:102FD000F006002070B50F48016AFF221204114369
:102FE0000162016A1202114301620B4C0025256146
:102FF000A5610A487D21C9000068FDF7D5F8401E8B
:1030000060610720206106480560FDF765F8002033
:1030100070BD000000ED00E000E000E028000020AE
:1030200080000020FFB585B0164690000F9FFFF787
:103030001DFE05001CD05420FFF718FE040014D01C
:1030400000205121256308550E99009103900197A6
:1030500002943246089B06990598FFF789FD2046A1
:10306000FFF7D0FC012009B0F0BD2846FFF70CFFA8
:103070000020C043F7E7F0B585B007460B9D0C9CD8
:103080000A98002D15D0002C15D054262563022552
:1030900051263555002504AE009001960395029403
:1030A0003846FFF765FD2046FFF7ACFC049805B0F5
:1030B000F0BD72B6FEE772B6FEE70000F8B52C4C24
:1030C0000027A06B002808D0206A401C2062606A9C
:1030D000002800D001273846F8BD6669761C666175
:1030E0000ED160680068002801D072B6FEE7606803
:1030F000A1686160A060A06A401CA062FFF79CFD0F
:10310000206B86420AD360680068002810D060688F
:10311000C068C568686886420DD2206320681421A3
:10312000C06A4843134908580128D0D90127CEE77F
:103130000020C043F1E7281DFFF73CFEA86A0028E5
:1031400003D028461830FFF735FEE86AA1698842A7
:1031500000D9A0611421484306494018291DFFF7F2
:103160006DFEE86A2168C96A8842CCD30127CAE7A4
:103170002C000020F0060020F8B5284C0025A06B9C
:103180002E46002808D0FFF765FEA06B401EA06306
:10319000A06B002802D03DE072B6FEE72169204F07
:1031A00000291DD136E0F868C56828461830FFF7B9
:1031B00001FE281DFFF7FEFDE86AA169884200D9DB
:1031C000A061142148431649B4394018291DFFF75E
:1031D00035FEE86A2168C96A884201D3012060622D
:1031E00038680028DFD1002D01D0FFF725FD256AC2
:1031F000002D09D00127FFF761FF002800D067628A
:103200006D1EF8D100202062606A002802D00126DD
:10321000FFF75CFEFFF72AFE3046F8BD2C000020C9
:10322000A4070020783200082120000800000000D8
:10323000000000008000000000000000000000000E
:1032400074320008F11F0008FDFF000000000000BC
:1032500080000000000000000000000000000000EE
:103260000000000001020304060708090000000036
:10327000010203044C45440053657269616C00000F
:10328000A032000800000020840000008828000808
:1032900024330008840000205C17000098280008F0
:1032A0000000000000000000000000000001020318
:1032B00004050607000000000000000001000000F7
:1032C000040000000000000000127A00000000006E
:1032D00000000000000000000000000000000000EE
:1032E00000000000000000000000000000000000DE
:1032F00000000000000000000000000000000000CE
:1033000000000000000000000000000000000000BD
:1033100000000000000000000000000000000000AD
:04332000AAAAAAAA01
:04000005080000C12E
:00000001FF
