:020000040800F2
:10000000F8170020510100089D2C00081129000854
:1000100000000000000000000000000000000000E0
:10002000000000000000000000000000C12C0008DB
:1000300000000000000000000F010008BD2E0008B5
:100040008101000881010008810100088101000888
:100050008101000881010008810100088101000878
:1000600081010008110C0008210C0008390C00085F
:1000700081010008652F0008810100088101000846
:10008000810100080000000000000000810100085C
:100090000000000081010008552F000881010008C0
:1000A000000000008101000881010008613600089D
:1000B000713600080000000081010008810100087D
:1000C0000448854600F008FD0048004769400008E4
:1000D000C046C046F8170020084B19680868203051
:1000E00080F30988022080F31488BFF36F8F3FBC30
:1000F000AE4608BC04BC62B61847000040000020B1
:10010000EFF3108072B6704780F310887047EFF3FA
:1001100009800E4B1A6820381060F0C044464D46E6
:1001200056465F46F0C008B572B604F0C7FB62B62B
:100130000CBC116808681030F0C8A046A946B24649
:10014000BB4680F309882038F0C8184740000020DB
:100150000C4880F308880C480168090E0B4A91424C
:1001600005D10B480B4901600B480C4901600C4854
:1001700080470C480047FEE7FEE7FEE7FEE7FEE7A4
:10018000FEE70000F8170020040000001F00000038
:1001900018100240010000000000014000000000B3
:1001A000512F0008C100000830B50B460146002061
:1001B0002022012409E00D46D5409D4205D31D466D
:1001C0009540491B2546954040191546521E002D65
:1001D000F1DC30BDF0B51FB40646002082B0054604
:1001E0004024019100901BE0019922460F463046C1
:1001F00000F05DF8049A059B801A994110D31046CF
:100200001946224600F070FB361A8F4101972246AC
:1002100001200021009F00F067FB38184D4100903D
:100220002046641E0028DFDC019B009829463246E8
:1002300007B0F0BDF0B51FB486B00020009001906B
:1002400002900698069980B204900798090C02045F
:100250000014114307900027089D099806913E4617
:100260003C4603900398A9B20204000C0390049842
:100270002D0C154348430021224600F035FBC719D9
:10028000714110340E46402CECDB3846029A00F0E7
:100290002BFB009A019B8018009059410298019114
:1002A000103002904028CCDB00980BB0F0BD10B5A8
:1002B000202A04DB0846203AD040002110BD0B461E
:1002C000D340D0402024A21A91400843194610BDC3
:1002D00003460B439B0703D009E008C9121F08C05F
:1002E000042AFAD203E00B780370401C491C521E0A
:1002F000F9D27047D2B201E00270401C491EFBD215
:1003000070470022F6E710B513460A460446194620
:10031000FFF7F0FF204610BD421C0178401C002969
:10032000FBD1801A7047F8B502464A40D40F42000C
:100330004B0052085B089A4202D202460846114618
:100340004A0023D0C30D4A00DDB2120EAD1A202D93
:1003500035DA49020126490AF6058A19002C00D02F
:10036000524220214F1B1146B9402A411018C20D9C
:100370009A4221D0002C17D0012D08DCDA05801A12
:10038000D20F8019D207DBB200F0D9FAF8BDDA0536
:10039000801A012340001B06C01880185A4280189A
:1003A000CA0F1043490007E04908C2071143DA05A4
:1003B000801A80194008801800F0B9FAF8BD610071
:1003C0000122511A001BF7E70122D2075140AAE788
:1003D0000122D2075040A6E7024670B54A40D30F2B
:1003E000DB0740002DD04A002AD0010E140E000277
:1003F00012020919400A520A8418E50104465443BE
:10040000000A120A2E045043A4194219200CC543B5
:10041000AA18120C0125AD03521C521912047F397F
:10042000240400D0521C104301D44000491EC2B223
:100430000C06C0092018401C4008802A02D003E0A6
:10044000002070BD40084000002900DA0020184359
:1004500070BD70B502464A40D50F40004A00ED0716
:1004600040085208002814D0002A12D0C40DD30D21
:1004700041020120C0055202490A520AE41A091831
:1004800012187D34914201D3641C00E04900002C15
:1004900001DA002070BD0023914201D3891A034381
:1004A000400849000028F7D100290AD0914202D122
:1004B0000121C90705E0914201D2012101E001219A
:1004C000C943E005C018401900F031FA70BD0000C2
:1004D000F0B507460846584087B0C00F0490480062
:1004E0000E46590040084908BC1A884105D23846D2
:1004F00031461E4617460B46024658004008104338
:100500004DD0300D039040055900400D490D059028
:10051000401A0290402873DA18030121000B0905E4
:100520000843019004980092002806D01146019AD1
:1005300049420020904100910190029840210A1AFE
:100540000199009800F0D0F905460C466B4607CBA0
:1005500000F0DAF9C0197141039A0E0D0023D71784
:1005600056401A467A40164344D0049A002A2DD0A9
:10057000029A012A039A15DC1205C01A914101263C
:100580003605001C7141D20F059ED20700930192DF
:1005900002962A46234600F018FA07B0F0BD384606
:1005A0003146FAE71605234A0F46B218C01AB7417A
:1005B00001210905001C4F4100187F411146181800
:1005C0007941E20F10436D19644113E0E2076D08B1
:1005D00015436408C2071443039A01261205C01A82
:1005E00091413605001C7141CE074008304349084F
:1005F000C01851412A46234600F0DAF9CDE7FFE75B
:10060000049801224000C117121A00238B4104985C
:100610003146C417381AA141EEE730B40124E4078B
:10062000634030BC54E730B40124E407614030BC7F
:100630004EE700000000E0FFF0B51FB488B00B9952
:100640000998002448400999C00F490049080991B8
:10065000C0070B990090490049080B910999089827
:10066000A64608431CD00B990A98084318D009984D
:1006700001244000420D4800410D09982405000363
:10068000000B204309900B980003000B20430B90B4
:1006900050181C494018002201901446104605E0ED
:1006A000002001460DB0F0BD032801DA034600E04A
:1006B00003239C46C11A0AAE0AE05F0008ADED5B59
:1006C0004F00F75B7D430027AA187C41491C5B1E45
:1006D0006145F2DD410004AB5A522104120C0A4379
:1006E000240C401C0828DFDB01980290009970461A
:1006F00001910090059B049A0799069800F065F90E
:10070000D0E700000DFCFFFFF0B50C465C4085B063
:10071000E40FE40703944C00002664085900944653
:10072000490802460296224321D062460A431ED05F
:100730006200570D4A000E032303550D01240246A3
:100740002C492405781B1B0B360B401823432643EA
:10075000614600901C46501AB44103D30098401CD7
:10076000009002E0921800985B41002803DA002014
:10077000014605B0F0BD0020012109050746864667
:1007800011E064461D46141BB54106D36546521B55
:10079000B341744607430C43A646CD0740084908B9
:1007A000284392185B4105460D43EAD11046184391
:1007B00013D06046194650407140084306D0604649
:1007C000101AB34106D20122002306E000220123C1
:1007D000DB0702E00122D243531000987446010562
:1007E000381C6141029C039D0019694100F0E0F84A
:1007F000BFE70000FD03000010B50022962311465C
:1008000000F09DF810BD00000EB5054902910021D1
:1008100000910A460B46019100F0D7F803B000BDE5
:1008200033040000410040020122400AD205090EB3
:1008300080187F2901DA00207047962903DC962270
:10084000511AC84070479639884070474A000903DA
:100850000123090B1B051943094B10B5520D9A4290
:1008600001DA002010BD064B34339A4203DC9A1A99
:10087000FFF71DFD10BD03495118884010BD000051
:10088000FF030000CDFBFFFFC20FD207400040086E
:100890000BD0C10D0723DB01C91840020905400A2E
:1008A0001143C208400711437047002001467047BA
:1008B000CB0FDB07490010B5490802460A4307D0B1
:1008C0000A0D07240903E401090B121B002A01DCAD
:1008D000002010BDC900440F0C43C100E018D20530
:1008E000801800F024F810BD10B5202A04DB014662
:1008F000203A9140002010BD914020239C1A0346CD
:10090000E3401943904010BD10B5202A06DBCB17F9
:100910000846203A1041C1170B4306E00B4613412D
:10092000D0402024A21A91400843194610BD002946
:1009300004DA401C490001D140084000704770B4FF
:100940000024050C05D11024000402D1002921D077
:100950001124050E01D100020834050F01D1000158
:10096000241D850F01D18000A41C002801DB40005C
:10097000641C002908D020252E1B0D46F540A140FF
:1009800000D001212943084301061B1B000ADB1D7F
:1009900002D5002070BC7047DB05181880180029AC
:1009A000F8DA401C4900F5D170BC4008400070479F
:1009B00010B5002B08DA0024401C614192185B41FD
:1009C0001A4301D14008400010BDF0B51FB482B0F9
:1009D00005460C0003D0084602F066FE02E002F075
:1009E00063FE20300246009021462846FFF77CFF38
:1009F000049B059A04460F4618431143084314D03C
:100A0000184610431BD0009840210A1A1846059931
:100A1000FFF74DFC05460E46009A05990498FFF72E
:100A200063FF084305D0012004E02046394607B0A3
:100A3000F0BD0020C11705430E432C4337430099F6
:100A40000E986305401A7905E40A00220C43FD0A5A
:100A50000A3002D500200146E9E701051019694175
:100A60000C9C0D9D00196941FFF7A2FFDFE7000014
:100A70004A0009030123090B1B0519430A4B10B552
:100A8000520D9A4202DA0020014610BD064B343363
:100A90009A4203DC9A1AFFF70AFC10BD034BD218E6
:100AA000FFF722FF10BD0000FF030000CDFBFFFF9A
:100AB00010B5002904DB0124E40740428C412146A3
:100AC000002B04DB1C460123DB075242A341994261
:100AD00000D1904210BD0000064C0125064E05E0F5
:100AE000E36807CC2B430C3C98471034B442F7D34F
:100AF000FFF7EAFAF84B0008184C000810B5014659
:100B0000406A826B50231A420AD1816B0122520241
:100B1000114381630168CA681205920F05D020E075
:100B2000006B026B0846904710BD827E002A18D1E8
:100B30000A68120715D58A6853070122002B09DBC2
:100B40004B680C24A3434B60816B13029943114300
:100B5000816306E0816B202319438163C16B1143DC
:100B6000C16300F0C1F910BD10B5406A816B40222D
:100B700011438163C16B04221143C16300F0B6F9D4
:100B800010BD10B5406A00F0B0F910BDF8B50446CC
:100B900000200090206881688907890F012905D10C
:100BA0000168C9072CD1C168090429D48168154A94
:100BB000102611400125002915D181682943816043
:100BC000124811490068FFF7EFFA00E0401E00905C
:100BD0000028FBD100F044FD07460CE000F040FD8A
:100BE000C01B022807D9A06B3043A063E06B2843E9
:100BF000E0630120F8BD20680068C043C007EDD164
:100C00000020F8BD1700008040420F003C0000208B
:100C100010B5024800F0BEFB10BD000084030020A8
:100C200010B5034800F0B6FB024800F0B3FB10BD5E
:100C3000F8050020B405002010B5034800F0AAFB19
:100C4000024800F0A7FB10BD800600203C060020F3
:100C500010B504460068054940181421FFF7A4FAAE
:100C6000800020640248E06310BD0000F8FFFDBF73
:100C70000000024030B5056C0124AC40C56B6C60CF
:100C8000046863604368102B036803D099600068B0
:100C9000C26030BD9A600068C16030BDF3B5364CAB
:100CA00081B0002020806080009003F0CDFA608049
:100CB00001F0F6FF68468088002103F0B4F901F0E6
:100CC000F7FF6846C088002103F0ADF903F0D0FAC1
:100CD000054668460689478928484468A64206D9D9
:100CE000A74204D203F0C4FA401B6428F4D3A642FE
:100CF00001D3A7423CD903F0BBFA401B642837D28A
:100D000003F0A2FA1C4C6188401A81B221801C4871
:100D100003F0F7F92080FFF777FD0022194BFFF76A
:100D2000F3FCFFF7C5FDFFF7AFFD174A174BFFF7C1
:100D300083FCFFF7BDFD164A01466060904206DD68
:100D400014486060012114A003F07AF903E00098D0
:100D5000FFF7E9FA0090322003F08EFA00210FA08D
:100D600003F06EF900210CA003F06AF90098FEBDB3
:100D700001210AA0E8E7000000000020E4000020B4
:100D8000C000002000409F404A9869FB5756D63F5C
:100D90000000604020BCBE4C4235000042370000DD
:100DA000BFF34F8F04490348C860BFF34F8F00BFA4
:100DB000FDE700000400FA0500ED00E0F8B50025AD
:100DC000044620340095227D012A3BD00122227561
:100DD00003689E68760776D43F4F4E68BE4254D073
:100DE0009E6A0F78BA4016439E620123C26A1B07AF
:100DF0009A421FD0012A1DD0022A1BD0032A19D0E3
:100E0000042A17D0052A15D0062A13D0072A11D094
:100E100002688B6856697607760FB3420AD0536929
:100E2000DB08DB005361006842690B7A5B075B0FEC
:100E30001A4342610868102806D0112804D01228ED
:100E400002D045E00220F8BD244A9368102809D05A
:100E500011280AD001200006034393600868102877
:100E600006D035E00120C005F6E701208005F3E754
:100E70001C481B490068FFF797F90A21484300E026
:100E8000401E00900028FBD122E0986A0E78B24004
:100E9000904398620868102803D0112801D01228C6
:100EA00016D10E498A68102807D0112808D00120D1
:100EB000000682438A600BE005E00120C005F8E7E8
:100EC00001208005F5E7816B202211438163012514
:100ED000002020752846F8BD0110000000270140C1
:100EE00040420F003C0000207047704770470000F0
:100EF000F8B500260446002805D0A06B254620350D
:100F0000002802D007E00120F8BD0020E06328752A
:100F1000204600F0A9F8A06B1022C006002870DB64
:100F20002068816849076CD4A16B1301994302239F
:100F30001943A16381688907890F012905D10168D7
:100F4000C9070FD1C16809040CD4C168182399439B
:100F5000A3681943C1602068016963688900890832
:100F6000194301612068C1683D4B1940C160207E72
:100F7000617E8003C9030843A17E4B031843A36A23
:100F8000012B02D001231B0300E000231843E36878
:100F900018432369022B09D0002318432B79E57EDF
:100FA0005B0018430123012D02D00AE00423F4E77B
:100FB000002927D0A16B20252943A163E16B1943A8
:100FC000E163E1690D46FF3DC23D02D0256A294338
:100FD00008432168CD680543CD600125E16A2D07EE
:100FE000A94213D0012911D002290FD003290DD015
:100FF00004290BD0052909D0062907D0072905D0D7
:1010000010E028E0012109040843DAE721684D696E
:10101000ED08ED004D6121684D69A78D7F077F0FB9
:101020003D434D612168C9680E4D2940814207D179
:101030000020E063A06B80088000401CA06308E0F3
:10104000A06B022188431043A063E06B1843E06368
:1010500001263046F8BDA06B1043A063F8E70000FE
:101060001902FEFFE7FF3F83F0B587B00546142164
:101070006846FFF746F91B49286888422FD11A496C
:1010800088694E15304388618869304005904A6907
:10109000300202434A6149690027014005918120DD
:1010A000009003200190092069460297C00600F0D5
:1010B0001FFA0E480E4C81C427608020A660606035
:1010C0000001E0602020676120610948083C00F0D1
:1010D000AFF9002801D0FFF763FE2C63656207B00B
:1010E000F0BD000000240140001002400800024052
:1010F00084030020F7B50446006800258068400797
:101100003DD426462036307D01280AD00127377588
:10111000607E012807D02046FFF738FD050002D089
:101120002EE00220FEBDA06B16490840FF210131D0
:101130000843A0630020E0633075216B1248886289
:10114000216B1248C862216B1148086321681C207A
:101150000860206841681022114341602068C1681E
:101160003943C1602168206B4031029B019A00F035
:1011700089F92068816804221143816000E002251A
:101180002846FEBDFEF1FFFFFD0A0008830B0008A4
:10119000690B0008F8B5040005D0254620352878ED
:1011A000002802D004E00120F8BD204600F07AF8C3
:1011B0002068016802229143016000F051FA012782
:1011C00006467F0404E000F04BFA801B0A2811D881
:1011D000206840688007F6D4206801680122114326
:1011E000016000F03DFA06460AE000F039FA801B83
:1011F0000A2805D9606A3843606205202870D2E762
:1012000020684068C007F0D0217E80200129216835
:101210000A683BD082430A60617E40200129216830
:101220000A6835D082430A60A17E20200129216806
:101230000A682FD082430A60E17E102001292168CC
:101240000A6829D002430A60217F08200129216809
:101250000A6823D082430A60617F04200129216843
:101260000A681DD082430A60E168A0686269084389
:101270002169114308436168491E08432168C86118
:1012800000206062012028700020F8BD0243C2E700
:101290000243C8E70243CEE78243D4E70243DAE7DA
:1012A0000243E0E710B586B0044614216846FFF714
:1012B00028F81349206888421FD11248C2690121C9
:1012C00049060A43C261C2690A400592426909128D
:1012D0000A4342614069084005900320C002009023
:1012E000022001900020029003200390042004902B
:1012F00009206946C00600F0FBF806B010BD0000EA
:10130000006400400010024030B5014620314B78A7
:101310000022022B04D0042383630A70012030BD15
:1013200003681C680E25AC431C6003681C686408D5
:1013300064001C600123056C1C46C06BAC4044601B
:101340004B700A70002030BD70B50024014620317A
:101350004A78022A03D004218163012416E002683E
:1013600013680E25AB431360026813685B085B00CB
:1013700013600122056C1346AB40C56B6B604A706D
:1013800000220A70416B002900D08847204670BDBA
:10139000806B7047F0B4C16B0D6801680C68042263
:1013A000066C1346B3402B420DD063070BD50B6878
:1013B0009B0602D40B6893430B60016C8A40C16B9F
:1013C0004A60C16A19E00227B74002462F40012354
:1013D0002032002F15D0A70713D50C68A40604D41B
:1013E0000C680A25AC430C605370036C02219940D1
:1013F000C36B596000211170816A002916D0F0BCBE
:1014000008470827B7402F4210D024070ED50C6894
:101410000E25AC430C60046C1946A140C46B61609E
:101420008363537000211170016BE6E7F0BC7047D5
:1014300070B5040021D002212046203005464170BD
:10144000226811680E48A368014060682669184345
:10145000E3683343184363691843A3691843E36996
:101460001843084310602046FFF7F2FB0021A163F8
:10147000012068702970084670BD012070BD000011
:101480000FC0FFFFF8B504468C46203001780025D8
:10149000012909D00126067041780027012905D0CD
:1014A000077002252846F8BD0220F8BD02214170D0
:1014B000A763206801684908490001606146204629
:1014C000FFF7D8FBE06A00282068016802D00E22EE
:1014D000114306E00A2211430160206801680422DA
:1014E000914301602068016831430160DAE7000040
:1014F000FCB5002301249CE027462A469F403A4041
:1015000073D04D68012D05D0022D03D0112D01D0CF
:10151000122D16D185680326AC465D00AE46AE405E
:101520006546B543AC46CE687546AE4065462E432B
:10153000866046680D79BE43ED06ED0F9D4035434C
:101540004560C6685F000325BD40AE46AE433546E4
:101550008E68BE402E43C6604E68022E01D0122E09
:1015600014D1DE08B60036180196366A5D07B44617
:10157000EE0E0F25B54000966646AE43B4460D69A3
:10158000009EB54066462E43019D2E620668754654
:10159000AE430D79AD07AD0FBD40354305604D68D5
:1015A000ED0045D5264DAE692643AE61AD699E0876
:1015B000ED07ED0F0095234DB6007519AC46AD68EB
:1015C0009E07360F0F27B740BD430927FF06B842D5
:1015D00001D100270BE01C4FB84201D1012706E0E2
:1015E0001A4FB84202D1022701E021E00527B74097
:1015F0002F436546AF60164E35684F689543FF032D
:1016000000D51543356075684F689543BF0300D515
:1016100015437560B5684F689543FF0200D51543C3
:10162000B560F5684F689543BF0200D51543F56076
:101630005B1C0A681546DA4000D05DE7FCBD00007F
:10164000001002400000014000040048000800486B
:1016500000040140002A01D0816170478162704717
:10166000014880687047000030000020024881680F
:1016700002788918816070473000002010B5064854
:101680000168102211430160002000F007F800F00B
:1016900041F8002010BD00000020024000B50146C6
:1016A00087B000220D2000F055F80D2000F046F81C
:1016B00013488269C1140A43826180690840059019
:1016C00004A9684600F05AF900F074F90D49FEF7D4
:1016D0006BFD0E490C4A0A600D4A401ECA60486004
:1016E000002008618860084600F0EEFB002802D068
:1016F000012007B000BD054800F028FCF9E7000014
:101700000010024040420F00002C0140C40600209F
:10171000E703000008B5084881690122114381618F
:10172000816911400091C26901040A43C261C06924
:101730000840009008BD000000100240002805DBB2
:10174000C106C90E012088400149086070470000A9
:1017500000E100E010B501F0D7FF10BDF8B5044678
:1017600000683E4DC00352D5E8690026C00007D48A
:10177000E96928040143E961E96901400126009112
:1017800037480168C90510D401688215114301600A
:10179000FFF766FF074604E0FFF762FFC01B6428FF
:1017A00024D82F480068C005F6D5286A03273F02D1
:1017B000384020D06168394081421CD0286A2A6AAA
:1017C000B843012109040A432A622A6A8A432A6229
:1017D0002862C0070FD0FFF743FF009008E0FFF733
:1017E0003FFF0099411A1F48814201D90320F8BDEB
:1017F000286A8007F3D5286A6168B84308432862DD
:10180000002E04D0E969012000078143E9612078B6
:10181000C00705D0286BA1688008800008432863B2
:101820002078800605D5286B10218843E16808439D
:1018300028632068800305D5286B8021884361696F
:10184000084328632088400505D5286B402188433C
:101850002169084328630020F8BD00000010024001
:101860000070004088130000F8B50F4606005FD0F6
:101870003D4D2868C007C00FB84209D2286840080B
:101880004000384328602868C007C00FB8424FD1D5
:101890003068364C81070CD5400704D560680721B5
:1018A0000902084360606068F0218843B16808431A
:1018B00060603078C0072CD07068012810D00228F2
:1018C00011D0032812D021688907002930DA616815
:1018D0008908890001436160FFF7C2FE009011E0B2
:1018E00021688903F1E721688901EEE7616BC9038B
:1018F000EBE7FFF7B5FE0099411A1D48814201D977
:101900000320F8BD60680C21084071688900884296
:10191000EFD12868C007C00FB8420BD9286840082B
:101920004000384328602868C007C00FB84201D083
:101930000120F8BD3078400706D56068072109020C
:101940008843F1680843606000F044F86168094A20
:101950000906090F515CC840074908600020FFF7DD
:101960009DFE0020F8BD0000002002400010024053
:1019700088130000B84B00083C00002010B5072277
:1019800002600A4A53689B079B0F43605368F02428
:1019900023408360526807231B021A40C260044838
:1019A0000068C007C00F086010BD000000100240B2
:1019B000002002400448054900684968044A490576
:1019C000490F515CC84070473C00002000100240A5
:1019D000C84B000830B519A30FCB89B06C460FC4B3
:1019E0001AA30FCB0FC41D4A51680C200B460340AD
:1019F0001B48042B05D01B4D082B04D00C2B00D109
:101A0000284609B030BD8B021B0F6C46E45CD26ADD
:101A100004AB1207120FC9039A5C890F022901D087
:101A2000032901D0002301E0002328460021FEF70E
:101A3000D1FB214601F04FFEE3E70000020304055D
:101A4000060708090A0B0C0D0E0F10100102030403
:101A500005060708090A0B0C0D0E0F1000100240B6
:101A600000127A00006CDC02FEB5040070D0207811
:101A7000F94EFA4DC00748D068680007800F01286A
:101A80001FD068680007800F022804D16868C0036F
:101A9000800F022815D06168012919D00120800427
:101AA000002901D0052917D02968B1432960296888
:101AB00081432960606800281BD0FFF7D1FD0746ED
:101AC00013E02868800320D560680028CED01CE091
:101AD000286830432860EDE7296801432960F7E76B
:101AE000FFF7BEFDC01B642870D828688003F7D5B7
:101AF0000BE0FFF7B5FD074604E0FFF7B1FDC01BA3
:101B00006428F1D828688003F7D4207880073FD56F
:101B100068680007800F14D068680007800F0228EB
:101B200004D16868C003800F01280AD0E06800284B
:101B300028681ED0012108432860FFF791FD074661
:101B40000CE0286880070CD5E068012800D108E087
:101B500080E1FFF785FDC01B0228C5D828688007F3
:101B6000F7D52868F82188432169C900084328600F
:101B70000EE0400840002860FFF772FD074604E0D1
:101B8000FFF76EFDC01B0228AED828688007F7D487
:101B90002078000723D5E0690028686A0FD001216A
:101BA00008436862FFF75CFD074604E0FFF758FD55
:101BB000C01B022898D8686A8007F7D50FE0400854
:101BC00040006862FFF74CFD074605E0C3E0FFF701
:101BD00047FDC01B022887D8686A8007F7D42078A1
:101BE00004274007002861DA00200190E869C0005E
:101BF00008D4E969B8060143E961E96901400120B7
:101C00000091019096480168C90511D401688215B8
:101C100011430160FFF724FD009005E0FFF720FD70
:101C20000099401A642898D88D480068C005F5D5F9
:101C3000A06801280AD0002801D0052811D0286A00
:101C4000400840002862286AB84302E0286A01215F
:101C500008432862A068002812D0FFF701FD009019
:101C60000AE0286A38432862F0E7FFF7F9FC009998
:101C7000411A7C4881426ED8286A8007F5D50DE06C
:101C8000FFF7EEFC009006E0FFF7EAFC0099411A2E
:101C9000744881425FD8286A8007F5D401980028EB
:101CA00004D0E969012000078143E9612078C0067A
:101CB00035D5606901280CD0401D686B24D03843AD
:101CC0006863686B400840006863FFF7C9FC07461B
:101CD00022E0686B38436863686B012108436863DE
:101CE000FFF7BEFC074604E0FFF7BAFCC01B022862
:101CF00031D8686B8007F7D5686BF8218843A169F4
:101D0000C900084368630AE0B8436863F4E7FFF773
:101D1000A7FCC01B02281ED8686B8007F7D4207868
:101D2000800637D568680007800F032814D06868DC
:101D30000007800F022804D16868C003800F0328C1
:101D40000AD0206A0028686B16D030436863FFF71A
:101D500087FC06460CE062E0686BC0031AD5206A77
:101D6000012877D116E0FFF77BFC801B022856D8AC
:101D7000686BC003F7D50DE0B0436863FFF770FCF4
:101D8000064604E0FFF76CFC801B022847D8686B0E
:101D9000C003F7D4606A002866D069680907890F14
:101DA000022942D0012636060228286805D0B04311
:101DB0002860FFF755FC044633E0B0432860FFF786
:101DC0004FFC074604E0FFF74BFCC01B022826D857
:101DD00028688001F7D4E86A216B000900010843F4
:101DE000E862A16AE06A084369687B22D2039143F2
:101DF00008436860286830432860FFF731FC0446D8
:101E000004E0FFF72DFC001B022808D82868800199
:101E1000F7D529E0FFF724FC001B022801D9032095
:101E2000FEBD28688001F5D41EE00128F8D068685E
:101E3000E96A0322D203A36A02409A420AD109073F
:101E4000226B090F914205D10F2189040840E16AF4
:101E5000884209D00120FEBD0000010000100240B0
:101E600000700040881300000020F4E770477047BE
:101E7000F0B502462032137F012B1ED001251577C5
:101E80000223537706687468B3687027BC430F68F1
:101E90002743776000680A4CA04205D0AC07A042F7
:101EA00002D0084CA04204D180244968A3431943BE
:101EB0008160557700201077F0BD0220F0BD000052
:101EC000002C01400004004070B5040005D02546F8
:101ED0002035687F002802D006E0012070BD002078
:101EE0002877204600F00AF802206877211D206834
:101EF00001F040F801206877002070BD08B5104A55
:101F000001681048914207D1C26902210A43C261A7
:101F1000C0690840009008BD0B4A9142FBD182691C
:101F2000012189040A4382618069002208400090EF
:101F300011461620FFF70EFC1620FFF7FFFB08BD29
:101F40000004004000100240004801400268D368CD
:101F500001210B43D360006882685207520F062AA2
:101F600002D002680A43026000207047F8B50546B7
:101F700004462035287F012817D001262E7702201D
:101F80006877226890687727FF23B8431B0298433D
:101F900090600A68502A31D00EDC202A4BD006DC33
:101FA000002A48D0102A3AD145E00220F8BD302A54
:101FB00041D0402A33D136E0602A27D0702A12D08F
:101FC00001200003121A2AD0824228D1CB684A6825
:101FD0008968206801F01DF8206881680122920359
:101FE000114381601BE0CB684A688968206801F072
:101FF00010F8216888683843886010E0CA6849682A
:10200000206801F0FBF85021206806E0CA684968A2
:10201000206801F004F96021206801F005F86E776E
:1020200000202877F8BDCA684968206801F0E6F802
:1020300040212068F1E711462068EEE7704770B54F
:102040000446006801690025C9438907002915DB9A
:10205000C168C943890711D4E91E016101202077B5
:10206000206880698007204602D0FFF7E7FF04E080
:1020700000F0BEF8204600F03FF92577206801699E
:10208000C943490717D4C168C943490713D4042178
:10209000C943016102202077206880698005800F94
:1020A000204602D0FFF7CAFF04E000F0A1F8204666
:1020B00000F022F9257720680169C943090716D481
:1020C000C168C943090712D40821C943016104202A
:1020D00020772068C0698007204602D0FFF7AEFF56
:1020E00004E000F085F8204600F006F92577206826
:1020F0000169C943C90617D4C168C943C90613D4C5
:102100001021C9430161082020772068C06980053B
:10211000800F204602D0FFF791FF04E000F068F83E
:10212000204600F0E9F8257720680169C943C9070E
:1021300008D1C168C943C90704D1891E016120467D
:1021400000F03AF920680169C943090609D4C16859
:10215000C943090605D48021C94301612046FFF720
:1021600085FE20680169C943490609D4C168C9438D
:10217000490605D44021C9430161204600F038F9E1
:1021800020680169C943890609D4C168C943890621
:1021900005D42021C94301612046FFF768FE70BDC8
:1021A00010B586B0044614216846FEF7AAF80D491A
:1021B0002068884214D10C48426909130A434261DD
:1021C00040690840059010200090022001900020F6
:1021D000029003900120049069460448FFF788F9B3
:1021E00006B010BD0004004000100240000400488A
:1021F0007047F8B5064604462036307F0D46012864
:102200000DD001203077022070770427002A08D0F3
:10221000042A16D0082A2AD00C2A4DD137E00220F1
:10222000F8BD206800F008FF20688169082211438A
:10223000816120688169B9438161206881692A6967
:1022400012E0206800F034FF206882690121C90291
:102250000A4382612068816901229202914381616F
:10226000206881692A6912021143816124E0206893
:1022700000F058FF2068C26908210A43C261206843
:10228000C169B943C1612068C1692A6912E0206847
:1022900000F084FF2068C1690122D2021143C161AC
:1022A0002068C269012189028A43C2612068C1692C
:1022B0002A6912021143C161012070770020307732
:1022C000F8BD70B5040005D025462035687F00288C
:1022D00002D006E0012070BD00202877204600F0E3
:1022E0000AF802206877211D206800F043FE0120D3
:1022F0006877002070BD70477047000010B5044635
:102300000068012200F078FE0D482168814205D066
:102310000C48814202D00C48814204D1486C012211
:10232000D20310434864206881684907490F062991
:1023300003D00168012211430160002010BD00009C
:10234000002C0140004401400048014030B50446E3
:102350000068002200F050FE144A134821689310D0
:10236000814205D01248814202D0124881420AD1EE
:10237000086A104207D1086A184204D1486C012546
:10238000ED03A84348642068016A114206D1016A3E
:10239000194203D101684908490001600120203435
:1023A0006077002030BD0000002C014011110000BA
:1023B000004401400048014010B504460068094946
:1023C000884201D1FFF752F907492068884207D1B6
:1023D000064900230A684868521C58410A60486050
:1023E00010BD0000002C01400048014028000020E2
:1023F0007047704770B5044600680168FF222132BB
:102400009143016020688168490849008160206823
:10241000816800254906002911DA8168402291432C
:102420008160E06E00280AD04563E06EFEF76CFF25
:10243000002804D0E06EFEF7ABFF20280DD05A2014
:10244000055321680F200862206881690822114322
:1024500081612020A067002070BD1020E06703206C
:1024600070BD7047F8B502680446D069116893687A
:10247000524D05402E462025002E68D0DE07F60F6F
:10248000FF2721370F40374375D0C70706D0CF0548
:1024900004D501271762E26F3A43E267820708D545
:1024A000DA0706D0276802223A62E26F04273A432D
:1024B000E267420708D5DA0706D0236804221A62C9
:1024C000E26F02231A43E267020709D50A462A404F
:1024D000324305D0236808221A62E36F1343E3678F
:1024E000020508D54A0106D501222368D2021A62E4
:1024F000E26F2A43E267E26F002A30D0800606D5F9
:10250000880604D5216E002901D020468847E06F57
:1025100021688968490602D42821084224D020462F
:1025200000F093FF20688168490619D58168402230
:1025300091438160E06E002812D021494163E06E32
:10254000FEF702FF00280AD0E06E416B06E0860627
:1025500011D58E060FD5216E1DE020468847F8BDA7
:102560002046FFF77EFFF8BD2046FFF77AFF0020E8
:10257000E067F8BDFFE7C60208D55B0206D501207B
:10258000000510622046FFF734FFF2E7030605D589
:102590000B0603D5616E0029DFD1EAE74006E8D5D6
:1025A0004806E6D51368204640218B4313606567D3
:1025B0000021616600F0AAF9DBE700000F080000C7
:1025C0007133000810B5040003D0606F002802D0FA
:1025D00007E0012010BD002170200155204600F0C9
:1025E00027F82420606720680168490849000160D5
:1025F000204600F043FF0128ECD0606A002802D09A
:10260000204600F01FFE206841680922D202914353
:102610004160206881682A229143816020680168B6
:10262000012211430160204600F072FE10BD00003F
:10263000F0B587B0044614216846FDF762FE544F9A
:102640000121266853484904022303220025BE4283
:102650004AD18769CE10374387618769374005972C
:1026600046690E43466140696E4608400590500237
:10267000039229C60120049009206946C006FEF78E
:1026800037FF4548454E21C635608020B560F5606E
:1026900087017761356170604048083EFEF7C8FEEB
:1026A000002801D0FEF77CFBE66674623A483B4E98
:1026B0001438443630601020B56070603561756143
:1026C000F7618020B561F0603046FEF7B1FE00286A
:1026D00001D0FEF765FBA666002211461B2074623E
:1026E000FFF738F81B204EE02D4FBE424DD1C66992
:1026F0000E43C661C6690E40059646690E434661A3
:1027000040696E46084005900C20039229C60120BE
:10271000049009206946C006FEF7EAFE1E481F4ED7
:102720002830883621C635608020B560F560870185
:1027300077613561706030460838083EFEF778FEF4
:10274000002801D0FEF72CFBE66674621248134E97
:102750001430CC3630601020B56070603561756122
:10276000F7618020B561F0603046FEF761FE002819
:1027700001D0FEF715FBA666002211461C207462EC
:10278000FEF7E8FF1C20FEF7D9FF07B0F0BD000000
:10279000003801400010024030000240B405002023
:1027A00000440040F8B50446806F20284DD1002930
:1027B0000BD0002A09D00123A0681B03984206D140
:1027C0002069002803D1C80701D00120F8BD2546A3
:1027D0006035287C012838D0012028745820616594
:1027E00002530026E6672220A067E06E002819D079
:1027F00017498162E16E1748C862E16E16480863A6
:10280000E06E13464663676D21683A462431E06EF8
:10281000FEF738FE002805D01020E0672E74202037
:102820006067D2E72E7420680168FF2201321143ED
:1028300001602068816801221143816020688168FD
:102840004022114381600020F8BD0220F8BD000045
:10285000CD330008093400088533000870477047FD
:10286000F8B50446406F202847D100290BD0002A34
:1028700009D00123A0681B03984206D120690028D3
:1028800003D1C80701D00120F8BD25466035287C5A
:10289000012832D00120287420464030E1640282B1
:1028A00042820026E66721206067A06E002819D0CA
:1028B00013498162A16E1348C862A16E1248086371
:1028C000A06E134646632768E16C3A462832A06E34
:1028D000FEF7D8FD002805D01020E0672E742020D8
:1028E0006067D0E72168402008622E742068816804
:1028F0008022114381600020F8BD0220F8BD000055
:1029000013340008413400088533000870477047CD
:10291000FEE70000044B10B51A46143A10460A218F
:10292000283001F07EFC10BDAC0000203EB5002434
:102930002049214800940194029412C004600422AA
:102940004460C26001218160047444748174C47461
:10295000FF22C23284614261024618321171016263
:102960000838FEF7C5FA002801D0FEF719FA012051
:102970000003019003200290009469460E48FEF780
:102980001DFA002801D0FEF70BFA072000906946D7
:102990000948FEF713FA002801D0FEF701FA1020CB
:1029A000009069460448FEF709FA002801D0FEF7B6
:1029B000F7F93EBD002401404403002010B50E4845
:1029C0000C490160102141600021032281609204C2
:1029D00002610122C1601205426101764176817671
:1029E000C17601774177FEF7D5FB002801D0FEF7CD
:1029F000D7F910BD006400400C04002008B5104851
:102A00004169012211434161406910400022009058
:102A100011460920FEF79EFE0920FEF78FFE0022D8
:102A200011460A20FEF796FE0A20FEF787FE0022D6
:102A300011460B20FEF78EFE0B20FEF77FFE08BD31
:102A40000010024010B596B01C2212496846FDF7EE
:102A50003FFC0021684601F01CFC0F4C0D49A060B2
:102A60001C221C3107A8FDF733FC002107A801F048
:102A700010FC0849E0601C2238310EA8FDF728FC44
:102A800000210EA801F005FC2061FFF743FF16B0FE
:102A900010BD0000644B000808000020F0B587B0AE
:102AA00014216846FDF72DFC27484269012189055C
:102AB0000A43426142690A400592426949110A4348
:102AC000426142690A400592426949000A434261F3
:102AD00040691E4E08400927FF0605900022314636
:102AE0003846FEF7B7FD0022E2211948FEF7B2FD95
:102AF0000220002401256A4631C269463846FEF7A5
:102B0000F7FC029469463846009601950394FEF757
:102B1000EFFC402000900194694602943846FEF78D
:102B2000E7FC019469460A4800950294FEF7E0FC30
:102B3000E220009002946946019503940448FEF750
:102B4000D7FC07B0F0BD000000100240308100004B
:102B50000004004810B50B48094901602F2141606D
:102B6000002181607D220161D2004161C2608161EA
:102B7000FFF7AAF9002801D0FEF712F910BD0000F6
:102B8000004801407404002010B58EB00024079462
:102B9000089409940A940B941C2168460C94FDF740
:102BA000B0FB21481F4901600B2184604160046132
:102BB00063218461C160FFF787F9002801D0FEF727
:102BC000EFF801200003079007A91748FFF7CEF997
:102BD000002801D0FEF7E4F81348FFF772FB002845
:102BE00001D0FEF7DDF80B940BA90F480C94FFF70A
:102BF0003FF9002801D0FEF7D3F860200090322082
:102C0000019002940022694604940748FFF7F1FA04
:102C1000002801D0FEF7C4F80348FFF7C1FA0EB050
:102C200010BD0000000400403404002010B50C4822
:102C30000A4901604B21C901416000218160C160E6
:102C400001618161C1610C22016242614162FFF751
:102C5000B9FC002801D0FEF7A3F810BD00380140F0
:102C6000B404002010B50C480A4901604B21C90189
:102C7000416000218160C16001618161C1610C22FC
:102C8000016242614162FFF79DFC002801D0FEF71E
:102C900087F810BD00440040340500207047000054
:102CA00010B500210148FFF729FB10BD34040020B6
:102CB00010B500210148FFF749FB10BD3404002086
:102CC00070470000014909684863704734040020D8
:102CD00008B5214E214D224CA868FDF78DFD3146E7
:102CE000FDF77AFBFDF7D0FD1E4A1F4BFDF795FC63
:102CF0001E4A1F4BFDF708FD00221E4BFDF7E8FBA7
:102D0000FDF7A4FD20702868FDF77EFD1A4A1B4BD5
:102D1000FDF792FC00221A4BFDF7F6FCFDF7C8FD0B
:102D200018490091184B0022184901F0CDF9FDF720
:102D300079FD6070012116A001F082F9FF27F537B7
:102D4000384601F099FA002111A001F079F93846CE
:102D500001F092FAC0E700006740533AE400002017
:102D600008000020E17A14AE47E1F63F33333333F5
:102D700033331140000039406666666666660A4075
:102D800000FEAF400000FA420000F0C1CDCCCC3FC5
:102D9000423600001CB5394F394C3A4E0025786850
:102DA000FDF772FD02460B4637A1684600F068FC4D
:102DB0006946012001F080FC0521012001F05EFC44
:102DC0002078312806D0322818D033282ED0342845
:102DD00028D13FE060787D222179D20030385043FD
:102DE0000A18A07864214843E1780A23594340181F
:102DF0001018224980191431088012E060787D2271
:102E00002179D200303850430A18A0786421484311
:102E1000E1780A23594340181018184980191431D1
:102E200048802570642001F027FAB8E760787D2299
:102E30002179D200303850430A18A07864214843E1
:102E4000E1780A2359434018101881190B481430AF
:102E50008180E6E760787D222179D20030385043C6
:102E60000A18A07864214843E1780A23594340189E
:102E700010188019C0B2FFF725FFD2E70800002024
:102E8000D000002030EBFFFF252E32660A00000044
:102E90001CB5084C084D0749082214316846FDF757
:102EA00017FA01990098FDF7F9FE6060284601F0D5
:102EB000E3F9F0E7080000201027000010B5FDF747
:102EC0001FF9044601F09AFD002803D001200349B0
:102ED000000748602046FDF717F910BD00ED00E03F
:102EE00070B598B034216846FDF70BFA00250D95B2
:102EF0000E950F95182111A81095FDF702FA0124DF
:102F000011200594009001941020069000030A906F
:102F1000000102260B9009960C956846FEF7A4FD69
:102F2000002811D107200D900F9501210E961095C4
:102F30000DA8FEF799FC002806D111A8139511944D
:102F4000FEF70CFC002801D0FDF72AFF18B070BD79
:102F50007047000010B50248FFF771F810BD00007F
:102F60007404002010B50248FFF769F810BD000096
:102F7000C4060020F0B502681A4B0124A4071A4DBC
:102F8000984203D0A04201D0A84203D17026B24398
:102F90004E683243154E164F98420AD0A04208D0D0
:102FA000A84206D0134CA04203D0B04201D0B84290
:102FB00004D103242402A243CC6822438024A243E8
:102FC0004C69224302608A68C2620A68826298423F
:102FD00003D0B04201D0B84201D109690163012197
:102FE0004161F0BD002C014000040040004401405C
:102FF000004801400020004010B5CB06DB0E012147
:10300000046A99408C430462016A9A401143016248
:1030100010BD30B58468FF252D021B021343AC435D
:103020000B432343836030BD826870239A430A4375
:1030300007210A4382607047F0B5026A52085200C5
:103040000262056A436882697024A24392080C6890
:1030500092001443022295438A68134E2A43114D6D
:10306000A84204D0B04202D0104FB84206D108277F
:10307000BA43CF681743042297433A46A84204D084
:10308000B04202D0094DA84206D103252D02AB4320
:103090004D691D438B692B434360846149684163DB
:1030A0000262F0BD002C0140004401400048014094
:1030B00070B5026A10239A430262046A4368826907
:1030C00073252D02AA430D682D0215432022944337
:1030D0008A6812012243104CA04208D11446CA68E3
:1030E0008026B443120122434024A24305E00B4C46
:1030F000A04202D00A4CA04208D10324A402A34358
:103100004C69A4001C438B699B0023434360856189
:1031100049688163026270BD002C01400044014097
:103120000048014070B5026AFF2301339A430262EE
:10313000046A4368C2697025AA4392080D68920028
:1031400015430122520294438A6812022243104C12
:10315000A04207D1C414A243CC682402224306151E
:10316000B24305E00B4CA04202D00B4CA04208D168
:1031700003242403A3434C6924011C438B691B01D2
:1031800023434360C5614968C163026270BD0000AA
:10319000002C0140004401400048014030B5026A63
:1031A00001231B039A430262056A4268C3697324C0
:1031B0002402A3430C6824021C4301235B039D43A8
:1031C0008B681B032B430A4DA84205D0094DA8422A
:1031D00002D0094DA84205D10125AD03AA434D698E
:1031E000AD012A434260C46149680164036230BD95
:1031F000002C0140004401400048014030B5036A02
:10320000046A6408640004628469F025AC43120116
:1032100022430A24A3430B438261036230BD30B5CD
:10322000036A1024A34303628469036A0F252D03F4
:103230001203AC432243A024A34309011943826132
:10324000016230BD10B5818CC90707D001684A689A
:1032500001235B049A43836A1A434A60818C89077D
:1032600007D501684A6801231B049A43C36A1A43BD
:103270004A60818C490707D501684A6801239B048D
:103280009A43036B1A434A60818C090707D501688A
:103290004A680123DB039A43436B1A434A60818CDB
:1032A000C90607D50268916801231B039943836B04
:1032B00019439160818C890607D501688A680123CA
:1032C0005B039A43C36B1A438A60818C490612D50B
:1032D00003685A6801210905046C8A4322435A6035
:1032E000026C8A4207D10268516803235B05994347
:1032F000436C19435160818C090607D501684A68FF
:103300000123DB04806C9A4302434A6010BD000035
:10331000F8B500260446C667FEF7A2F90546206800
:103320000068124F000709D501212B4600224905EC
:103330002046009700F046F900280DD1206800686B
:1033400040070BD501212B46002289052046009716
:1033500000F038F9002801D00320F8BD2020606774
:10336000A067603426740020F8BD0000FFFFFF0155
:1033700010B5406A0022014640314A834A82FFF775
:1033800070F810BD70B5446A606FA56F21688968D8
:1033900000260906002906DA212804D15220065306
:1033A000204600F062F820688068400606D5222D8D
:1033B00004D15A200653204600F047F8E06F102150
:1033C0000843E0672046FFF74CF870BD10B5014692
:1033D0008969406A202914D000225A210A520168C2
:1033E0000A68FF2301339A430A6001688A68520819
:1033F00052008A6001688A6840239A438A602021CB
:103400008167FFF72BFA10BD10B5406AFFF727FA66
:1034100010BD10B501468969406A20290DD00022EF
:1034200052210A5201688A6880239A438A600068A0
:10343000016840221143016010BDFFF767FA10BD1B
:1034400010B5406AFFF763FA10BD01680A68FF23F0
:1034500021339A430A6001688A68520852008A60E0
:103460002021816700210166704701680A68C02336
:103470009A430A60202141677047000070B50446F6
:1034800080682169E2690843616900251143226867
:1034900008431168444B1940014311602168486892
:1034A000032212039043E26810434860A169206A36
:1034B0002268084391680B231B02994301439160E2
:1034C0003A492068884210D13948006B8007800F44
:1034D00011D0012805D0022805D003280AD10220E6
:1034E00009E0042007E0082005E03249884201D1C4
:1034F000002000E010200122E169D2032E4E91420B
:1035000028D1002806D0022807D0042817D0082880
:1035100044D11AE0FEF74EFA13E06168274A4808E2
:103520008018FCF741FE80B201461039B14235D80F
:103530002149491C01400007400F084321E0FEF7E4
:1035400049FA616840004A08EAE7616801224808D0
:103550001204E5E7002806D0022807D0042813D07B
:1035600008281BD116E0FEF725FA0FE06168144A1F
:10357000480811E0FCF718FE80B201461039B1424C
:103580000CD82168C8600AE0FEF724FA61684A088E
:103590001018EFE7616848088018EBE70125002064
:1035A00020666066284670BDF369FFEF0038014071
:1035B0000010024000440040EFFF00000024F4002F
:1035C00000127A00FFB581B005460F46044660350B
:1035D0000A9E38E0701C36D0FEF742F80499401A73
:1035E000B04221D8002E1FD02068016849072AD593
:1035F000C069C043000526D401202168C0020862CA
:1036000020680168FF22A13291430160206881682F
:1036100049084900816020206067A067E0670020BA
:103620002874032005B0F0BD20680168FF22A13294
:103630009143016020688168490849008160202029
:103640006067A067EBE72068C1693846884305D00A
:10365000002103988142BDD00020E3E70121F8E773
:1036600010B50248FEF7FEFE10BD0000B4040020B5
:1036700010B50248FEF7F6FE10BD0000340500202C
:103680000FB410B504A9074B02AA039800F028F95B
:10369000044602A9002000F0C1FC204610BC08BC72
:1036A00004B018471D4000082021020C01D0102151
:1036B0001046020A01D010460839020901D010460E
:1036C000091F820801D01046891E420801D0881EB9
:1036D0007047081A7047F8B5040C8BB2264682B2C0
:1036E0005E430D0C1046370C5843360480190021F8
:1036F000794116466E43370C3604801979412646C7
:103700006E438919F8BD00008307FF22DB0E9A4043
:103710008907090E9940002808DB830809489B00A7
:103720001B18186890430843186070470007000F83
:103730000838830804489B001B18D8699043084345
:10374000D861704700E400E000ED00E002E008C846
:10375000121F08C1002AFAD170477047002001E00B
:1037600001C1121F002AFBD170470000F0B51FB441
:1037700086B00998089A030D0021024314D05148DD
:10378000514A1818504305141198012810981AD05E
:10379000281A401C00264D4F4D4900960191049077
:1037A000002812DA444211E01198012449A30128AB
:1037B00001D11098C1430698119A84600360C260D9
:1037C00041600BB0F0BD4042E4E704462105002013
:1037D0003F4A001C51410391029012E0E00707D0DC
:1037E00032463B4601990098FCF726FF0191009074
:1037F00032463B4610461946FCF71EFF06460F466A
:103800006410002CEAD10498039B0028029A0999BD
:10381000089806DAFCF710FF019B009AFCF70CFFF2
:1038200005E0FCF771FF019B009AFCF76DFF044671
:103830000E460022284BFDF73BF903D80020C04379
:10384000014607E00022254B20463146FCF740FEAA
:10385000FDF70EF9102409E0002C0ADB0A220023F0
:10386000FCF7B8FC079B30321A55641E02460A4327
:10387000F2D11122641C079B121B1C19119B012BF6
:1038800003D0012308430ED10AE0084304D01120DD
:1038900010900020119077E71098151A6D1E0BE01C
:1038A0001098824202DD00236D1C03E0824201DA9F
:1038B00000236D1E002BEED0069811998260C16026
:1038C00030C07EE701FCFFFF104D000000001440F7
:1038D0000000F03F300000000000F0430000E03F37
:1038E000FFB597B0064600251BE2252876D10024B7
:1038F0002746F749049400E00443761C32780120FF
:10390000203A90400842F7D130782A280ED002227F
:10391000307801463039092916D804990A235943C9
:10392000303940181443761C0490F1E7189802C807
:1039300004911890002904DA01204003044348420E
:10394000049002200443761C30782E2814D10420E1
:1039500004437078761C2A2809D11898761C80C8F0
:10396000189009E00A214F43303FC719761C307880
:10397000014630390929F5D930786C2810D006DC99
:103980004C281AD068280ED06A2817D104E0742871
:1039900013D07A2812D110E00120400504430CE036
:1039A0000121090501E0032109050C4371788142D9
:1039B00003D1012000052418761C761C3078662877
:1039C0000BD013DC58287DD009DC00287BD045289B
:1039D000F6D04628F4D047281AD1A9E118E0632888
:1039E00035D0642870D0652812D1A1E170286CD040
:1039F00008DC6728F1D069287DD06E280DD06F28AB
:103A000006D1BCE073282ED0752873D0782859D001
:103A10001A9A199990476D1C82E16002400F0228A2
:103A200009D003280DD00428189801680DD00D6026
:103A3000001D189074E11898EA1701680D604A603B
:103A4000F6E7189801680D80F2E70D70F0E7189816
:103A50006A4601781172001D18900020507202A869
:103A60000090012005E0189802C8189000200091ED
:103A7000C04361070ED5002101E00199491C019165
:103A8000B94213DA8142F8DB019A0099895C002976
:103A9000F3D10BE0002101E00199491C0191814221
:103AA000FADB019A0099895C0029F5D10199049803
:103AB0001A9B471A21463846199A00F099FA40197C
:103AC000019903E051E030E115E050E0451807E0CE
:103AD000009800990078491C00911A9A199990470A
:103AE0000198401E0190401CF2D1214638461A9B95
:103AF000199A12E137E00A2000210090019160023A
:103B0000410F022907D0189A01CA1892C217944689
:103B1000032908D00AE01898C01DC108C90005C9CA
:103B20001891944607E000B2C2179446042902D1C6
:103B300040B2C1178C4600226146944506DA0A4617
:103B40000021404291418C462D2102E0210504D5FF
:103B50002B216A461173012103E0E10701D02021E6
:103B6000F7E7029156E00A200AE0102008E0102052
:103B700000900021042004430191082703E008205D
:103B80000021019100906002410F022907D0189A8C
:103B900001CA189200229446032908D008E0189818
:103BA000C01DC108C90005C91891944603E080B240
:103BB000042900D1C0B20021029121072AD5317811
:103BC0000D91702906D0009A1021019B4A401A439A
:103BD00005D00EE040216A461173012108E06146DC
:103BE000014306D030216A4611730D9951730221A9
:103BF0000291009A0821019B4A401A430AD161466A
:103C0000014301D1610705D530216A4611730121B5
:103C10007F1E02913178582904D02EA10E910DA952
:103C20000D910DE030A1F9E76146019B009AFCF788
:103C3000D1FA0E9B8C469B5C0D9A521E0D9213700E
:103C400061460143F0D10D9805A9081A2030019072
:103C5000600703D501200004844300E00127019898
:103C6000874201DD381A00E00020019900904118D8
:103C7000029809180498401A0490E00306D42146DB
:103C80001A9B199A049800F0B3F94519002706E029
:103C900003A81A9AC05D199990476D1C7F1C029861
:103CA0008742F5DBE0030CD521461A9B199A04984C
:103CB00000F09EF9451904E01A9A302019999047AE
:103CC0006D1C0099481E00900029F5DC1FE00000E3
:103CD00009280100303132333435363738396162E2
:103CE00063646566000000003031323334353637A6
:103CF0003839414243444546000000000D980D9973
:103D00000078491C0D911A9A199990476D1C0199D8
:103D1000481E01900029F1DC4DE100F059F94519E8
:103D2000761C3078002800D0DFE528461BB0F0BDB7
:103D3000600700D406271898C01DC108C90048684C
:103D40000A680831C30FDB071891190001D09CA144
:103D500008E0210501D59BA104E0E10701D09AA16B
:103D600000E09AA14300109130785B0865280CD0E0
:103D700006DC452809D046281DD0472841D141E01E
:103D8000662818D067283CD13CE00021112F01DBC8
:103D9000112000E0781C0191009008A911A8FFF7FC
:103DA000E5FC139905910021119A15927F1C129838
:103DB0000197009150E00120C0070390012001907D
:103DC00008A9009711A8FFF7D1FC139A149905923E
:103DD0000022119B009212981593059A01920029D6
:103DE00001D0104602E0791C40180190381A01D524
:103DF000019804E04042401E0090781C0190C01BD6
:103E0000029043E0012F00DA01270021112F01DD8C
:103E1000112000E038460191009008A911A8FFF791
:103E2000A5FC13990591119A002112981592009101
:103E3000019721070CD40599B94201DB019900E0F3
:103E40000191012904DD159A491E515C302906D0E3
:103E5000B84201DA011D05DA0121029115E001994C
:103E6000491EEDE7002805DC0099411800910199F1
:103E7000091A03E0019A411C914200DD0191009969
:103E8000401A401C02900120C0070390200706D46E
:103E900002990198814202DB0020C0430290002079
:103EA0006946C87707AF012103980337C9078842DD
:103EB00024D0022011902B201290039800280CDAB5
:103EC000404203902D20129007E00A210398FCF74E
:103ED0006BF930317F1E039039701199481E119093
:103EE0000029F2DC03980028EFD1791E129808709F
:103EF0003078202108404530BF1E387006A8C01B0E
:103F0000C01D039010980078002800D0012001996E
:103F100041180298C0170918039809180498401A04
:103F2000401E0490E00306D421461A9B199A049877
:103F300000F05EF8451910980078002803D01A9A0E
:103F4000199990476D1CE00324D521461A9B199AB4
:103F5000049800F04DF845191CE00098002807DB94
:103F600000990598884203DD1598405C199901E095
:103F7000199930201A9A904700986D1C401C0090A7
:103F80000298401E0290002804D11A9A2E201999F6
:103F900090476D1C0199481E01900029DDDC05E069
:103FA00038781A9A7F1C199990476D1C0399481EFE
:103FB00003900029F4DC21461A9B199A0498ACE678
:103FC0002D0000002B000000200000000000000079
:103FD000F8B5044600251E461746880404D405E0BB
:103FE00039462020B0476D1C641EF9D52846F8BD1F
:103FF000FFB50446002581B01E46C80301D5302711
:1040000000E02027880404D505E038460399B0472E
:104010006D1C641EF9D5284605B0F0BD0A68531C16
:104020000B601070704770B504460D4600F00CF937
:1040300004194D4100F008F9001BA941FAD370BDE5
:1040400010B542780123303A934000789BB2412862
:1040500005D004480A461946FDF7FCFA10BD0920B0
:10406000C006F7E700040048FDF708FBFEF738FF3D
:10407000FEF714FDFEF7C2FCFEF758FCFEF79EFCAF
:10408000FEF782FDFEF7D2FDFEF7ECFDFEF762FDC6
:104090000748FDF75BFF032206490748FDF72AF8AA
:1040A0003220FEF70FFEFEF7CDFC00F0EDF8FEE744
:1040B00074040020E4000020440300200146002096
:1040C000842900D0C81C7047FFB581B007460E4652
:1040D00010460A9CFCF778F9054620460499FCF73F
:1040E00073F9044631463846FCF76EF92146FCF771
:1040F00073F92946FCF7ADF90499FCF714F905B0FA
:10410000F0BDFEB5027985685300EC5A8C4202D1AD
:10411000521C027183E0E952A14235D900221346B4
:104120002EE006799E4229D05F008568BC46EF5B91
:10413000BE468F4217D2C56867460195521CED5B9B
:10414000D2B20095002D0ED0A64507D8A6450AD1BB
:104150002F46019D7600AE5BB74204D9009D019EBB
:1041600067466D1EF553C6686546755B068876081A
:10417000B54203D186686546755B45805B1CDBB242
:1041800005889D42CDD839E00278521ED2B2002374
:1041900031E00579AE469D422BD05D008768AC4684
:1041A0007F5B02978F4219D9C7680197521E7F5BC8
:1041B000761ED2B20097B74210DA029DA54208D30C
:1041C000A5420BD13E467546019F6D007D5BAE4218
:1041D00004D2009D019E67466D1CF553C668654676
:1041E000755B06887608B54203D186686546755BBF
:1041F00045805B1CDBB206889E42CAD803885B08F8
:10420000934200D141800179C3684C00491C01717F
:104210001A5301790288914201D30021017140882B
:10422000FEBD30B5002404E0650054535C53641CAB
:10423000A4B28C42F8D30180C360490882604180F7
:104240000021017130BD000010B507497D2203C96E
:10425000D2000023FBF7EEFF044A1268526A0023E3
:104260008018594110BD000028000020740400206F
:1042700010B5FDF7F5F910BD10B5002800D10120EB
:1042800000F0D0FA002010BD10B500F0E3FA0020D5
:1042900010BD7FB50D46044641690820205E002907
:1042A00011D0A16900290ED0FFF708FF6B46A26963
:1042B000616907C32B4622692168606800F07BFBB7
:1042C000039004B070BDFFF7F9FE03A901910090BF
:1042D000208A2B4682B22168606800F043FB0128E7
:1042E00001D00020EDE70398EBE70000F8B5134C90
:1042F0000F46666905462068001D00F0FBF9681C42
:1043000007D1002F05D021680D48091D00F036FAAD
:10431000F8BD2068751945602168B54204D2A068CF
:10432000091D00F013FAF8BD6068091D00F00EFACF
:10433000206B8542F7D22563F8BD000040000020C5
:10434000E0070020F8B5054600F024FA294C206962
:10435000401C20612068284F002803D0E069002815
:1043600027D02CE025602069012828D100261420C0
:104370007043C01900F0DCF9761C072EF7D31E48F5
:104380008C3000F0D5F91C48A03000F0D1F91A4863
:10439000B43000F0CDF91848C83000F0C9F916481B
:1043A000DC3000F0C5F914488C3060601430A06037
:1043B00005E02068E96AC06A884200D82560E06AA2
:1043C000401CE062E86AA169884200D9A06114211A
:1043D0004843C019291D00F0D1F900F0E7F9E06960
:1043E000002806D02068E96AC06A884201D200F03D
:1043F0000DFAF8BD400000200407002010B5044667
:104400004030407C002805D0012806D0022807D083
:1044100072B6FEE7206B00F0D7F9204600F0D4F921
:1044200010BD000003210E488902420705D0C01DBF
:10443000C0080B4AC000821A891A0A4A0023411890
:1044400009C20839C908C900183A11604B600B60ED
:104450000B1A0AC093600120C0075360D0607047F8
:10446000F40700208C0000200F4E104C3746C83F48
:1044700011E000F08FF9F068C568281D00F03AF9E6
:104480002069401E2061E068401EE06000F08EF967
:104490002846FFF7B3FFE0680028EAD13868012812
:1044A000F9D900F0B3F9F6E7CC070020400000206E
:1044B000FFB581B00C9C9000236B001F1818C60834
:1044C0000A9DF600700701D072B6FEE723180A5C59
:1044D00020331A750A5C002A02D0401C1028F5D33C
:1044E0002046403000270090C770072D00D30625D6
:1044F000E562A764201D656400F025F920461830A8
:1045000000F021F924610720401B6462A061E76488
:10451000009807743046049A019900F09FF82060D3
:104520000B98002800D0046005B0F0BD30B51149EB
:1045300000E011460A688242FBD34B685C18844253
:1045400003D1406818184860084643681C18944214
:1045500009D1084C103C2468A24209D052689A182C
:1045600042600A6812680260814200D0086030BD73
:104570000460F9E78C0000200648416809680029BA
:1045800005D04168C968C96849680163704700215E
:10459000C943FAE74000002003480068401C72B697
:1045A00000D0FEE7FEE7000094000020F8B50546C5
:1045B000002700F07BF9284E3068002801D1FFF772
:1045C00031FFF06805423FD1002D3DD00835680726
:1045D00008D06807400F0821081A4519680701D05C
:1045E00072B6FEE7002D2FD0706885422CD81A488D
:1045F000103001460C6801E020460C466168A94273
:1046000002D221680029F7D131688C421CD007689A
:104610002168016060680837411B102908D96019BA
:10462000420701D072B6FEE741606560FFF77EFF8A
:1046300061687068401A7060B268904200D2B060E1
:10464000F0680143002003C400F036FA780701D077
:1046500072B6FEE73846F8BD7C00002010B5012494
:10466000031F24061C601B1F1960191F024B0B60DF
:10467000143940380A6010BD9945000810B50C4641
:1046800001280CD00848FDF7B5FE012107A0FFF76F
:10469000D7FC224606490448FEF784F810BD0248BC
:1046A0000A4604498038F7E7340500204138000005
:1046B000DA000020D000002010B50C4601280CD0F4
:1046C00000210AA0FFF7BCFC2046FBF725FE82B2C2
:1046D00021460748FEF7C4F810BD0846FBF71CFE4C
:1046E00082B2034821468038F4E7000041380000D8
:1046F000340500204368826801699A6083684268D3
:104700005A604A68824201D182684A60002202618E
:104710000868401E0860086870470000034B03608B
:10472000184654300860802010607047F000002068
:104730000146083100224160D243C16082600161BC
:1047400000210160704700210161704730B50B689E
:104750005A1C02D00246083202E0026904E02246F6
:10476000546825689D42FAD953684B6099608A6005
:10477000516008610168491C016030BD42684A60AF
:1047800093688B6093685960916008610168491C67
:104790000160704772B604480168491C0160BFF3AC
:1047A0004F8FBFF36F8F7047940000200549086852
:1047B000002804D0401E086000D162B6704772B66F
:1047C000FEE700009400002070B500281AD00446CF
:1047D0000D4D083C6068E968084201D172B6FEE7F9
:1047E0002268002A01D072B6FEE78843606000F0BC
:1047F0005DF860686968401868602046FFF796FEBB
:1048000000F05AF970BD00007C000020012004492E
:1048100000074860BFF34F8FBFF36F8F70470000F2
:1048200000ED00E010B502000FD00948806B0028B1
:1048300001D072B6FEE700F039F800211046FFF70C
:1048400055FD00F039F9002801D1FFF7DFFF10BD59
:104850004000002010B586B00024039405AA04A9E6
:1048600003A80494FFF75AFF049903980094019158
:104870000290002309A10B48059A00F09CF80A4910
:104880000028486308D072B60020C04308630120A6
:10489000C8614C6100F03EF806B010BD49444C457B
:1048A0000000000069440008400000200248816BBD
:1048B000491C8163704700004000002010B5134878
:1048C000816B002902D00121416210BD00214162AB
:1048D00081690F4A02E0002915D0491E14234B4379
:1048E000D358002BF7D014234B439A18536814461F
:1048F0005B6808345360A34201D15B685360DA6897
:104900000260816110BD72B6FEE700004000002029
:104910000407002070B50F48016AFF2212041143FA
:104920000162016A1202114301620B4C00252561EC
:10493000A5610A487D21C9000068FBF735FC401ECF
:1049400060610720206106480560FBF7C5FB002079
:1049500070BD000000ED00E000E000E03C00002041
:1049600094000020FFB585B0164690000F9FFFF71A
:104970001DFE05001CD05420FFF718FE040014D0C3
:1049800000205121256308550E990091039001974D
:1049900002943246089B06990598FFF789FD204648
:1049A000FFF7D0FC012009B0F0BD2846FFF70CFF4F
:1049B0000020C043F7E7F0B585B007460B9D0C9C7F
:1049C0000A98002D15D0002C15D0542625630225F9
:1049D00051263555002504AE0090019603950294AA
:1049E0003846FFF765FD2046FFF7ACFC049805B09C
:1049F000F0BD72B6FEE772B6FEE70000F8B52C4CCB
:104A00000027A06B002808D0206A401C2062606A42
:104A1000002800D001273846F8BD6669761C66611B
:104A20000ED160680068002801D072B6FEE76068A9
:104A3000A1686160A060A06A401CA062FFF79CFDB5
:104A4000206B86420AD360680068002810D0606836
:104A5000C068C568686886420DD22063206814214A
:104A6000C06A4843134908580128D0D90127CEE726
:104A70000020C043F1E7281DFFF73CFEA86A00288C
:104A800003D028461830FFF735FEE86AA16988424E
:104A900000D9A0611421484306494018291DFFF799
:104AA0006DFEE86A2168C96A8842CCD30127CAE74B
:104AB0004000002004070020F8B5284C0025A06B1A
:104AC0002E46002808D0FFF765FEA06B401EA063AD
:104AD000A06B002802D03DE072B6FEE72169204FAE
:104AE00000291DD136E0F868C56828461830FFF760
:104AF00001FE281DFFF7FEFDE86AA169884200D982
:104B0000A061142148431649B4394018291DFFF704
:104B100035FEE86A2168C96A884201D301206062D3
:104B200038680028DFD1002D01D0FFF725FD256A68
:104B3000002D09D00127FFF761FF002800D0676230
:104B40006D1EF8D100202062606A002802D0012684
:104B5000FFF75CFEFFF72AFE3046F8BD400000205C
:104B6000B8070020D04B0008912E0008000000007C
:104B700000000000800000000000000000000000B5
:104B8000E04B0008D12C0008FDFF000000000000F1
:104B9000800000000000000000000000EC4B000856
:104BA000952D0008000000000000000080000000BB
:104BB00000000000000000000000000000000000F5
:104BC00001020304060708090000000001020304B3
:104BD0005461736B5F556C747261736F6E696300BF
:104BE0005461736B5F49646C650000005461736BC2
:104BF0005F53657269616C00184C0008000000206A
:104C0000980000004C370008B04C000898000020C5
:104C1000601700005C370008000000000000000082
:104C20000000000000000000000000000000000084
:104C3000000000006400280A280A40060000000066
:104C4000000000000000000001000000040000005F
:104C50000000000000127A000000000000000000C8
:104C60000000000000000000000000000000000044
:104C70000000000000000000000000000000000034
:104C80000000000000000000000000000000000024
:104C90000000000000000000000000000000000014
:104CA000000000000000000000000000AAAAAAAA5C
:04000005080000C12E
:00000001FF
