:020000040800F2
:1000000038170020510100089527000843240008F4
:1000100000000000000000000000000000000000E0
:10002000000000000000000000000000D9270008C8
:1000300000000000000000000F0100085D2900081A
:100040008101000881010008810100088101000888
:100050008101000881010008810100088101000878
:100060008101000881010008C10A0008D90A0008BE
:1000700081010008F52900088101000881010008BC
:10008000810100080000000000000000810100085C
:100090000000000081010008E52900088101000836
:1000A00000000000810100088101000819300008EB
:1000B00029300008000000008101000881010008CB
:1000C0000448854600F0A8FC004800472531000898
:1000D000C046C04638170020084B19680868203011
:1000E00080F30988022080F31488BFF36F8F3FBC30
:1000F000AE4608BC04BC62B6184700005800002099
:10010000EFF3108072B6704780F310887047EFF3FA
:1001100009800E4B1A6820381060F0C044464D46E6
:1001200056465F46F0C008B572B603F037FB62B6BC
:100130000CBC116808681030F0C8A046A946B24649
:10014000BB4680F309882038F0C8184758000020C3
:100150000C4880F308880C480168090E0B4A91424C
:1001600005D10B480B4901600B480C4901600C4854
:1001700080470C480047FEE7FEE7FEE7FEE7FEE7A4
:10018000FEE7000038170020040000001F000000F8
:1001900018100240010000000000014000000000B3
:1001A000E1290008C100000830B50B4601460020D7
:1001B0002022012409E00D46D5409D4205D31D466D
:1001C0009540491B2546954040191546521E002D65
:1001D000F1DC30BDF0B51FB40646002082B0054604
:1001E0004024019100901BE0019922460F463046C1
:1001F00000F05DF8049A059B801A994110D31046CF
:100200001946224600F044FB361A8F4101972246D8
:1002100001200021009F00F03BFB38184D41009069
:100220002046641E0028DFDC019B009829463246E8
:1002300007B0F0BDF0B51FB486B00020009001906B
:1002400002900698069980B204900798090C02045F
:100250000014114307900027089D099806913E4617
:100260003C4603900398A9B20204000C0390049842
:100270002D0C154348430021224600F009FBC71905
:10028000714110340E46402CECDB3846029A00F0E7
:10029000FFFA009A019B8018009059410298019141
:1002A000103002904028CCDB00980BB0F0BD10B5A8
:1002B000202A04DB0846203AD040002110BD0B461E
:1002C000D340D0402024A21A91400843194610BDC3
:1002D00003460B439B0703D009E008C9121F08C05F
:1002E000042AFAD203E00B780370401C491C521E0A
:1002F000F9D27047D2B201E00270401C491EFBD215
:1003000070470022F6E710B513460A460446194620
:10031000FFF7F0FF204610BDF8B502464A40D40F63
:1003200042004B0052085B089A4202D2024608463D
:1003300011464A0023D0C30D4A00DDB2120EAD1A99
:10034000202D35DA49020126490AF6058A19002CC2
:1003500000D0524220214F1B1146B9402A411018AB
:10036000C20D9A4221D0002C17D0012D08DCDA05ED
:10037000801AD20F8019D207DBB200F0B4FAF8BDB0
:10038000DA05801A012340001B06C01880185A4263
:100390008018CA0F1043490007E04908C2071143FB
:1003A000DA05801A80194008801800F094FAF8BD28
:1003B00061000122511A001BF7E70122D2075140C8
:1003C000AAE70122D2075040A6E7024670B54A408C
:1003D000D30FDB0740002DD04A002AD0010E140EA7
:1003E000000212020919400A520A8418E501044663
:1003F0005443000A120A2E045043A4194219200C37
:10040000C543AA18120C0125AD03521C521912043F
:100410007F39240400D0521C104301D44000491EEF
:10042000C2B20C06C0092018401C4008802A02D025
:1004300003E0002070BD40084000002900DA0020E1
:10044000184370BD70B502464A40D50F40004A00BF
:10045000ED0740085208002814D0002A12D0C40D1D
:10046000D30D41020120C0055202490A520AE41A82
:10047000091812187D34914201D3641C00E0490030
:10048000002C01DA002070BD0023914201D3891AAB
:100490000343400849000028F7D100290AD09142BF
:1004A00002D10121C90705E0914201D2012101E0F9
:1004B0000121C943E005C018401900F00CFA70BDD5
:1004C000F0B507460846584087B0C00F0490480072
:1004D0000E46590040084908BC1A884105D23846E2
:1004E00031461E4617460B46024658004008104348
:1004F0004DD0300D039040055900400D490D059039
:10050000401A0290402873DA18030121000B0905F4
:100510000843019004980092002806D01146019AE1
:1005200049420020904100910190029840210A1A0E
:100530000199009800F0ACF905460C466B4607CBD4
:1005400000F0B6F9C0197141039A0E0D0023D717B8
:1005500056401A467A40164344D0049A002A2DD0B9
:10056000029A012A039A15DC1205C01A914101264C
:100570003605001C7141D20F059ED20700930192EF
:1005800002962A46234600F0F4F907B0F0BD38463B
:100590003146FAE71605234A0F46B218C01AB7418A
:1005A00001210905001C4F4100187F411146181810
:1005B0007941E20F10436D19644113E0E2076D08C1
:1005C00015436408C2071443039A01261205C01A92
:1005D00091413605001C7141CE074008304349085F
:1005E000C01851412A46234600F0B6F9CDE7FFE78F
:1005F000049801224000C117121A00238B4104986D
:100600003146C417381AA141EEE730B40124E4079B
:10061000634030BC54E730B40124E407614030BC8F
:100620004EE700000000E0FFF0B51FB488B00B9962
:100630000998002448400999C00F490049080991C8
:10064000C0070B990090490049080B910999089837
:10065000A64608431CD00B990A98084318D009985D
:1006600001244000420D4800410D09982405000373
:10067000000B204309900B980003000B20430B90C4
:1006800050181C494018002201901446104605E0FD
:10069000002001460DB0F0BD032801DA034600E05A
:1006A00003239C46C11A0AAE0AE05F0008ADED5B69
:1006B0004F00F75B7D430027AA187C41491C5B1E55
:1006C0006145F2DD410004AB5A522104120C0A4389
:1006D000240C401C0828DFDB01980290009970462A
:1006E00001910090059B049A0799069800F041F942
:1006F000D0E700000DFCFFFFF0B50C465C4085B074
:10070000E40FE40703944C00002664085900944663
:10071000490802460296224321D062460A431ED06F
:100720006200570D4A000E032303550D01240246B3
:100730002C492405781B1B0B360B401823432643FA
:10074000614600901C46501AB44103D30098401CE7
:10075000009002E0921800985B41002803DA002024
:10076000014605B0F0BD0020012109050746864677
:1007700011E064461D46141BB54106D36546521B65
:10078000B341744607430C43A646CD0740084908C9
:10079000284392185B4105460D43EAD110461843A1
:1007A00013D06046194650407140084306D0604659
:1007B000101AB34106D20122002306E000220123D1
:1007C000DB0702E00122D243531000987446010572
:1007D000381C6141029C039D0019694100F0BCF87E
:1007E000BFE70000FD03000010B50022962311466C
:1007F00000F079F810BD00000EB505490291002106
:1008000000910A460B46019100F0B3F803B000BD19
:10081000330400000EB5054A0292002200921346EE
:10082000019200F0A6F803B000BD00003304000000
:10083000C20FD207400040080BD0C10D0723DB01D7
:10084000C91840020905400A1143C2084007114374
:100850007047002001467047CB0FDB07490010B5F9
:10086000490802460A4307D00A0D07240903E40198
:10087000090B121B002A01DC002010BDC900440F27
:100880000C43C100E018D205801800F024F810BD18
:1008900010B5202A04DB0146203A9140002010BD0B
:1008A000914020239C1A0346E3401943904010BD19
:1008B00010B5202A06DBCB170846203A1041C11795
:1008C0000B4306E00B461341D0402024A21A91406E
:1008D0000843194610BD002904DA401C490001D123
:1008E00040084000704770B40024050C05D1102466
:1008F000000402D1002921D01124050E01D10002EB
:100900000834050F01D10001241D850F01D180009D
:10091000A41C002801DB4000641C002908D020250D
:100920002E1B0D46F540A14000D00121294308436C
:1009300001061B1B000ADB1D02D5002070BC70479E
:10094000DB05181880180029F8DA401C4900F5D199
:1009500070BC40084000704710B5002B08DA002436
:10096000401C614192185B411A4301D1400840008C
:1009700010BDF0B51FB482B005460C0003D0084688
:1009800002F05AFB02E002F057FB203002460090D2
:1009900021462846FFF77CFF049B059A04460F4634
:1009A00018431143084314D0184610431BD0009835
:1009B00040210A1A18460599FFF779FC05460E46AC
:1009C000009A05990498FFF763FF084305D00120BA
:1009D00004E02046394607B0F0BD0020C1170543AA
:1009E0000E432C43374300990E986305401A79054E
:1009F000E40A00220C43FD0A0A3002D50020014619
:100A0000E9E70105101969410C9C0D9D0019694128
:100A1000FFF7A2FFDFE70000064C0125064E05E0C8
:100A2000E36807CC2B430C3C98471034B442F7D30F
:100A3000FFF74AFBA03A0008C03A0008F8B50446A0
:100A400000200090206881688907890F012905D15D
:100A50000168C9072CD1C168090429D48168154AE5
:100A6000102611400125002915D181682943816094
:100A7000124811490068FFF797FB00E0401E009004
:100A80000028FBD100F066FC07460CE000F062FC99
:100A9000C01B022807D9A06B3043A063E06B28433A
:100AA000E0630120F8BD20680068C043C007EDD1B5
:100AB0000020F8BD1700008040420F0054000020C5
:100AC00010B5034800F016FB024800F013FB10BD00
:100AD0003C050020F804002010B5034800F00AFB94
:100AE000024800F007FB10BDC4050020800500206F
:100AF00010B504460068054940181421FFF754FB5F
:100B0000800020640248E06310BD0000F8FFFDBFD4
:100B10000000024070470000F8B50025044620346C
:100B20000095227D012A3BD00122227503689E6830
:100B3000760776D43F4F4E68BE4254D09E6A0F78F7
:100B4000BA4016439E620123C26A1B079A421FD015
:100B5000012A1DD0022A1BD0032A19D0042A17D03B
:100B6000052A15D0062A13D0072A11D002688B68EF
:100B700056697607760FB3420AD05369DB08DB006B
:100B80005361006842690B7A5B075B0F1A4342614D
:100B90000868102806D0112804D0122802D045E099
:100BA0000220F8BD244A9368102809D011280AD0E1
:100BB00001200006034393600868102806D035E042
:100BC0000120C005F6E701208005F3E71C481B491A
:100BD0000068FFF7E9FA0A21484300E0401E009050
:100BE0000028FBD122E0986A0E78B24090439862C8
:100BF0000868102803D0112801D0122816D10E49F8
:100C00008A68102807D0112808D0012000068243E6
:100C10008A600BE005E00120C005F8E701208005AF
:100C2000F5E7816B202211438163012500202075A7
:100C30002846F8BD011000000027014040420F0087
:100C4000540000200068006C70470000F8B50026D2
:100C50000446002805D0A06B25462035002802D088
:100C600007E00120F8BD0020E0632875204600F071
:100C7000A9F8A06B1022C006002870DB20688168EC
:100C800049076CD4A16B1301994302231943A16353
:100C900081688907890F012905D10168C9070FD12A
:100CA000C16809040CD4C16818239943A368194387
:100CB000C16020680169636889008908194301617E
:100CC0002068C1683D4B1940C160207E617E800371
:100CD000C9030843A17E4B031843A36A012B02D02A
:100CE00001231B0300E000231843E3681843236932
:100CF000022B09D0002318432B79E57E5B001843B3
:100D00000123012D02D00AE00423F4E7002927D0B3
:100D1000A16B20252943A163E16B1943E163E169DC
:100D20000D46FF3DC23D02D0256A29430843216894
:100D3000CD680543CD600125E16A2D07A94213D096
:100D4000012911D002290FD003290DD004290BD07D
:100D5000052909D0062907D0072905D010E028E089
:100D6000012109040843DAE721684D69ED08ED0027
:100D70004D6121684D69A78D7F077F0F3D434D6110
:100D80002168C9680E4D2940814207D10020E063E7
:100D9000A06B80088000401CA06308E0A06B0221CB
:100DA00088431043A063E06B1843E063012630469C
:100DB000F8BDA06B1043A063F8E700001902FEFF26
:100DC000E7FF3F8310B586B0044614216846FFF75D
:100DD00098FA10492068884219D10F488269411554
:100DE0000A43826182690A400592426909020A4304
:100DF00042614069084005908120009003200190E5
:100E00000020029009206946C00600F0EBF906B008
:100E100010BD00000024014000100240F8B5044657
:100E20004069254620350E4608280BD02068C0684A
:100E3000C00709D0A06B20210843A06300202875BB
:100E40000120F8BD082700E00C2700F083FA00908D
:100E500011E0701C0FD0002E05D000F07BFA009935
:100E6000401AB04207D9A06B04210843A0630020B8
:100E700028750320F8BD206800683842E9D0A06BCF
:100E8000012149020843A0632068C16809058A0F4F
:100E90000C21002A1AD1A27E002A17D1026812075B
:100EA00014D5826853070122002B08DB43688B436B
:100EB0004360A06B130298431043A06306E0A06B4D
:100EC00020231843A063E06B1043E063207E0028DA
:100ED00001D1206801600020F8BD000070B5044613
:100EE000216800208968490721D425462035297DBD
:100EF00001291CD001212975617E012904D02046D9
:100F0000FFF79CFD002811D1A16B0A4A1140FF2276
:100F100001321143A1630021E163297522681C217C
:100F2000116021688A6804231A438A6070BD022018
:100F300070BD0000FEF1FFFFF8B5040005D02546A6
:100F400020352878002802D004E00120F8BD204692
:100F500000F07AF82068016802229143016000F0F5
:100F6000F9F9012706467F0404E000F0F3F9801B3D
:100F70000A2811D8206840688007F6D420680168E4
:100F800001221143016000F0E5F906460AE000F095
:100F9000E1F9801B0A2805D9606A384360620520A0
:100FA0002870D2E720684068C007F0D0217E8020FA
:100FB000012921680A683BD082430A60617E402093
:100FC000012921680A6835D082430A60A17E202069
:100FD000012921680A682FD082430A60E17E10202F
:100FE000012921680A6829D002430A60217F08206C
:100FF000012921680A6823D082430A60617F0420A6
:10100000012921680A681DD082430A60E168A0684E
:10101000626908432169114308436168491E084316
:101020002168C86100206062012028700020F8BD9E
:101030000243C2E70243C8E70243CEE78243D4E754
:101040000243DAE70243E0E710B586B00446142114
:101050006846FFF756F91349206888421FD11248A5
:10106000C269012149060A43C261C2690A40059268
:10107000426909120A434261406908400590032011
:10108000C0020090022001900020029003200390F3
:101090000420049009206946C00600F0A3F806B0B9
:1010A00010BD0000006400400010024070B5002434
:1010B000014620314A78022A03D0042181630124A9
:1010C00016E0026813680E25AB43136002681368CC
:1010D0005B085B0013600122056C1346AB40C56BD7
:1010E0006B604A7000220A70416B002900D088476B
:1010F000204670BDF0B4C16B0D6801680C68042215
:10110000066C1346B3402B420DD063070BD50B681A
:101110009B0602D40B6893430B60016C8A40C16B41
:101120004A60C16A19E00227B74002462F400123F6
:101130002032002F15D0A70713D50C68A40604D4BD
:101140000C680A25AC430C605370036C0221994073
:10115000C36B596000211170816A002916D0F0BC60
:1011600008470827B7402F4210D024070ED50C6837
:101170000E25AC430C60046C1946A140C46B616041
:101180008363537000211170016BE6E7F0BC704778
:1011900070B5040021D00221204620300546417060
:1011A000226811680E48A3680140606826691843E8
:1011B000E3683343184363691843A3691843E36939
:1011C0001843084310602046FFF792FC0021A163FA
:1011D000012068702970084670BD012070BD0000B4
:1011E0000FC0FFFFFCB5002301249CE027462A46E0
:1011F0009F403A4073D04D68012D05D0022D03D099
:10120000112D01D0122D16D185680326AC465D0044
:10121000AE46AE406546B543AC46CE687546AE4078
:1012200065462E43866046680D79BE43ED06ED0F98
:101230009D4035434560C6685F000325BD40AE460E
:10124000AE4335468E68BE402E43C6604E68022EC1
:1012500001D0122E14D1DE08B60036180196366A77
:101260005D07B446EE0E0F25B54000966646AE43C8
:10127000B4460D69009EB54066462E43019D2E6220
:1012800006687546AE430D79AD07AD0FBD403543D9
:1012900005604D68ED0045D5264DAE692643AE612B
:1012A000AD699E08ED07ED0F0095234DB600751949
:1012B000AC46AD689E07360F0F27B740BD430927E0
:1012C000FF06B84201D100270BE01C4FB84201D104
:1012D000012706E01A4FB84202D1022701E021E0BF
:1012E0000527B7402F436546AF60164E35684F68F7
:1012F0009543FF0300D51543356075684F689543E6
:10130000BF0300D515437560B5684F689543FF026C
:1013100000D51543B560F5684F689543BF0200D509
:101320001543F5605B1C0A681546DA4000D05DE79E
:10133000FCBD000000100240000001400004004815
:101340000008004800040140002A01D08161704774
:1013500081627047014880687047000048000020A3
:10136000024881680278891881607047480000202F
:1013700010B506480168102211430160002000F0FA
:1013800007F800F041F8002010BD000000200240E6
:1013900000B5014687B000220D2000F055F80D2061
:1013A00000F046F813488269C1140A4382618069DB
:1013B0000840059004A9684600F05AF900F074F955
:1013C0000D49FEF7F1FE0E490C4A0A600D4A401E17
:1013D000CA604860002008618860084600F0EEFBA3
:1013E000002802D0012007B000BD054800F028FC0D
:1013F000F9E700000010024040420F00002C0140BD
:1014000008060020E703000008B5084881690122AA
:1014100011438161816911400091C26901040A434D
:10142000C261C0690840009008BD00000010024081
:10143000002805DBC106C90E01208840014908606B
:101440007047000000E100E010B501F025FE10BD7E
:10145000F8B5044600683E4DC00352D5E869002641
:10146000C00007D4E96928040143E961E969014042
:101470000126009137480168C90510D4016882151A
:1014800011430160FFF766FF074604E0FFF762FFC4
:10149000C01B642824D82F480068C005F6D5286AE8
:1014A00003273F02384020D06168394081421CD078
:1014B000286A2A6AB843012109040A432A622A6A6F
:1014C0008A432A622862C0070FD0FFF743FF0090CB
:1014D00008E0FFF73FFF0099411A1F48814201D9F8
:1014E0000320F8BD286A8007F3D5286A6168B843ED
:1014F00008432862002E04D0E969012000078143D7
:10150000E9612078C00705D0286BA16880088000B9
:10151000084328632078800605D5286B102188436E
:10152000E168084328632068800305D5286B802183
:1015300088436169084328632088400505D5286BE6
:10154000402188432169084328630020F8BD00003A
:10155000001002400070004088130000F8B50F46EC
:1015600006005FD03D4D2868C007C00FB84209D2C1
:10157000286840084000384328602868C007C00F2A
:10158000B8424FD13068364C81070CD5400704D59E
:10159000606807210902084360606068F0218843A1
:1015A000B168084360603078C0072CD070680128AB
:1015B00010D0022811D0032812D0216889070029F1
:1015C00030DA61688908890001436160FFF7C2FE73
:1015D000009011E021688903F1E721688901EEE7B5
:1015E000616BC903EBE7FFF7B5FE0099411A1D488F
:1015F000814201D90320F8BD60680C210840716860
:1016000089008842EFD12868C007C00FB8420BD9C3
:10161000286840084000384328602868C007C00F89
:10162000B84201D00120F8BD3078400706D5606887
:10163000072109028843F1680843606000F044F81C
:101640006168094A0906090F515CC84007490860EA
:101650000020FFF79DFE0020F8BD000000200240A2
:1016600000100240881300007C3A0008540000205B
:1016700010B5072202600A4A53689B079B0F43601C
:101680005368F02423408360526807231B021A40EA
:10169000C26004480068C007C00F086010BD0000A9
:1016A00000100240002002400448054900684968D3
:1016B000044A4905490F515CC84070475400002056
:1016C000001002408C3A000830B519A30FCB89B046
:1016D0006C460FC41AA30FCB0FC41D4A51680C20CF
:1016E0000B4603401B48042B05D01B4D082B04D090
:1016F0000C2B00D1284609B030BD8B021B0F6C4665
:10170000E45CD26A04AB1207120FC9039A5C890F1A
:10171000022901D0032901D0002301E0002328463B
:101720000021FEF757FD214601F09DFCE3E7000094
:1017300002030405060708090A0B0C0D0E0F101012
:101740000102030405060708090A0B0C0D0E0F1011
:101750000010024000127A00006CDC02FEB50400AA
:1017600070D02078F94EFA4DC00748D0686800075D
:10177000800F01281FD068680007800F022804D15D
:101780006868C003800F022815D06168012919D04C
:1017900001208004002901D0052917D02968B14310
:1017A0002960296881432960606800281BD0FFF701
:1017B000D1FD074613E02868800320D56068002823
:1017C000CED01CE0286830432860EDE7296801434B
:1017D0002960F7E7FFF7BEFDC01B642870D82868B2
:1017E0008003F7D50BE0FFF7B5FD074604E0FFF7F0
:1017F000B1FDC01B6428F1D828688003F7D4207895
:1018000080073FD568680007800F14D0686800071C
:10181000800F022804D16868C003800F01280AD015
:10182000E068002828681ED0012108432860FFF7DF
:1018300091FD07460CE0286880070CD5E068012878
:1018400000D108E080E1FFF785FDC01B0228C5D864
:1018500028688007F7D52868F82188432169C900DE
:10186000084328600EE0400840002860FFF772FD42
:10187000074604E0FFF76EFDC01B0228AED82868BB
:101880008007F7D42078000723D5E0690028686A2C
:101890000FD0012108436862FFF75CFD074604E0B2
:1018A000FFF758FDC01B022898D8686A8007F7D553
:1018B0000FE0400840006862FFF74CFD074605E076
:1018C000C3E0FFF747FDC01B022887D8686A80077E
:1018D000F7D4207804274007002861DA002001901F
:1018E000E869C00008D4E969B8060143E961E9691B
:1018F000014001200091019096480168C90511D46A
:101900000168821511430160FFF724FD009005E096
:10191000FFF720FD0099401A642898D88D48006888
:10192000C005F5D5A06801280AD0002801D00528F7
:1019300011D0286A400840002862286AB84302E0B3
:10194000286A012108432862A068002812D0FFF706
:1019500001FD00900AE0286A38432862F0E7FFF7AB
:10196000F9FC0099411A7C4881426ED8286A8007A8
:10197000F5D50DE0FFF7EEFC009006E0FFF7EAFC7E
:101980000099411A744881425FD8286A8007F5D4CB
:101990000198002804D0E969012000078143E9612A
:1019A0002078C00635D5606901280CD0401D686BD1
:1019B00024D038436863686B400840006863FFF7D1
:1019C000C9FC074622E0686B38436863686B0121F5
:1019D00008436863FFF7BEFC074604E0FFF7BAFC64
:1019E000C01B022831D8686B8007F7D5686BF821D7
:1019F0008843A169C900084368630AE0B843686383
:101A0000F4E7FFF7A7FCC01B02281ED8686B80070D
:101A1000F7D42078800637D568680007800F032840
:101A200014D068680007800F022804D16868C003DA
:101A3000800F03280AD0206A0028686B16D0304334
:101A40006863FFF787FC06460CE062E0686BC00342
:101A50001AD5206A012877D116E0FFF77BFC801B9E
:101A6000022856D8686BC003F7D50DE0B043686311
:101A7000FFF770FC064604E0FFF76CFC801B0228B1
:101A800047D8686BC003F7D4606A002866D06968DD
:101A90000907890F022942D0012636060228286844
:101AA00005D0B0432860FFF755FC044633E0B0434F
:101AB0002860FFF74FFC074604E0FFF74BFCC01B14
:101AC000022826D828688001F7D4E86A216B00092B
:101AD00000010843E862A16AE06A084369687B2262
:101AE000D203914308436860286830432860FFF7B9
:101AF00031FC044604E0FFF72DFC001B022808D847
:101B000028688001F7D529E0FFF724FC001B022894
:101B100001D90320FEBD28688001F5D41EE001280C
:101B2000F8D06868E96A0322D203A36A02409A42A5
:101B30000AD10907226B090F914205D10F218904AF
:101B40000840E16A884209D00120FEBD0000010082
:101B50000010024000700040881300000020F4E7ED
:101B600070477047F0B502462032137F012B1ED01C
:101B7000012515770223537706687468B3687027C8
:101B8000BC430F682743776000680A4CA04205D029
:101B9000AC07A04202D0084CA04204D1802449687E
:101BA000A34319438160557700201077F0BD0220D0
:101BB000F0BD0000002C01400004004070B504009E
:101BC00005D025462035687F002802D006E0012098
:101BD00070BD00202877204600F00AF802206877C0
:101BE000211D206800F00EFF01206877002070BDE5
:101BF00008B5104A01681048914207D1C269022114
:101C00000A43C261C0690840009008BD0B4A914276
:101C1000FBD18269012189040A4382618069002223
:101C20000840009011461620FFF70EFC1620FFF723
:101C3000FFFB08BD000400400010024000480140C6
:101C40000268D36801210B43D360006882685207A1
:101C5000520F062A02D002680A4302600020704731
:101C6000F8B5054604462035287F012817D00126FF
:101C70002E7702206877226890687727FF23B84381
:101C80001B02984390600A68502A31D00EDC202A4B
:101C90004BD006DC002A48D0102A3AD145E0022079
:101CA000F8BD302A41D0402A33D136E0602A27D00F
:101CB000702A12D001200003121A2AD0824228D1A1
:101CC000CB684A688968206800F0EBFE206881686C
:101CD00001229203114381601BE0CB684A68896846
:101CE000206800F0DEFE216888683843886010E0D4
:101CF000CA684968206800F0C9FF5021206806E0E2
:101D0000CA684968206800F0D2FF6021206800F0AE
:101D1000D3FE6E7700202877F8BDCA68496820682E
:101D200000F0B4FF40212068F1E711462068EEE79B
:101D3000704770B50446006801690025C9438907EA
:101D4000002915DBC168C943890711D4E91E016167
:101D500001202077206880698007204602D0FFF7A5
:101D6000E7FF04E000F0BEF8204600F03FF92577D9
:101D700020680169C943490717D4C168C9434907A5
:101D800013D40421C94301610220207720688069AF
:101D90008005800F204602D0FFF7CAFF04E000F064
:101DA000A1F8204600F022F9257720680169C9438F
:101DB000090716D4C168C943090712D40821C943C9
:101DC0000161042020772068C0698007204602D086
:101DD000FFF7AEFF04E000F085F8204600F006F9BA
:101DE000257720680169C943C90617D4C168C9436A
:101DF000C90613D41021C943016108202077206847
:101E0000C0698005800F204602D0FFF791FF04E0F3
:101E100000F068F8204600F0E9F8257720680169AD
:101E2000C943C90708D1C168C943C90704D1891E7C
:101E30000161204600F03AF920680169C9430906AA
:101E400009D4C168C943090605D48021C943016189
:101E50002046FFF785FE20680169C943490609D479
:101E6000C168C943490605D44021C94301612046E0
:101E700000F042F920680169C943890609D4C168A4
:101E8000C943890605D42021C94301612046FFF7D3
:101E900068FE70BD10B586B0044614216846FEF792
:101EA00030FA0D492068884214D10C484269091360
:101EB0000A434261406908400590102000900220CA
:101EC000019000200290039001200490694604488C
:101ED000FFF788F906B010BD000400400010024072
:101EE000000400487047F8B5064604462036307FA7
:101EF0000D4601280DD0012030770220707704278D
:101F0000002A08D0042A16D0082A2AD00C2A4DD13B
:101F100037E00220F8BD206800F0D6FD2068816916
:101F200008221143816120688169B9438161206879
:101F300081692A6912E0206800F002FE2068826947
:101F40000121C9020A43826120688169012292024B
:101F500091438161206881692A691202114381617C
:101F600024E0206800F026FE2068C26908210A43A8
:101F7000C2612068C169B943C1612068C1692A6929
:101F800012E0206800F052FE2068C1690122D202EE
:101F90001143C1612068C269012189028A43C2617B
:101FA0002068C1692A6912021143C161012070775A
:101FB00000203077F8BD70B5040005D025462035E7
:101FC000687F002802D006E0012070BD002028773D
:101FD000204600F00AF802206877211D206800F0F2
:101FE00011FD01206877002070BD70477047000028
:101FF00010B504460068012200F046FD0D48216836
:10200000814205D00C48814202D00C48814204D163
:10201000486C0122D2031043486420688168490754
:10202000490F062903D001680122114301600020F5
:1020300010BD0000002C0140004401400048014058
:1020400030B504460068002200F01EFD144A134813
:1020500021689310814205D01248814202D0124873
:1020600081420AD1086A104207D1086A184204D195
:10207000486C0125ED03A84348642068016A1142B9
:1020800006D1016A194203D101684908490001607B
:10209000012020346077002030BD0000002C01407A
:1020A00011110000004401400048014070B5054690
:1020B00000680E490E4C88420CD1FFF751F9A16916
:1020C000E2690846104305D00020C043491E424142
:1020D000E261A16107492868884206D1A168E068E9
:1020E000491C00225041A160E06070BD002C0140FD
:1020F0000000002000480140704770477047000012
:10210000F8B502680446D06911689368524D0540DD
:102110002E462025002E68D0DE07F60FFF27213738
:102120000F40374375D0C70706D0CF0504D5012728
:102130001762E26F3A43E267820708D5DA0706D0F2
:10214000276802223A62E26F04273A43E2674207B5
:1021500008D5DA0706D0236804221A62E26F022348
:102160001A43E267020709D50A462A40324305D0DE
:10217000236808221A62E36F1343E367020508D558
:102180004A0106D501222368D2021A62E26F2A436D
:10219000E267E26F002A30D0800606D5880604D5B3
:1021A000216E002901D020468847E06F21688968A8
:1021B000490602D42821084224D0204600F02AFEF5
:1021C00020688168490619D5816840229143816061
:1021D000E06E002812D021494163E06EFEF766FFF1
:1021E00000280AD0E06E416B06E0860611D58E0607
:1021F0000FD5216E1DE020468847F8BD2046FFF729
:102200007DFFF8BD2046FFF779FF0020E067F8BDAD
:10221000FFE7C60208D55B0206D501200005106263
:102220002046FFF76AFFF2E7030605D50B0603D544
:10223000616E0029DFD1EAE74006E8D54806E6D519
:102240001368204640218B43136065670021616657
:1022500000F0F6F8DBE700000F080000012E000890
:1022600010B5040003D0606F002802D007E0012001
:1022700010BD002170200155204600F027F82420D1
:10228000606720680168490849000160204600F045
:10229000D1FD0128ECD0606A002802D0204600F071
:1022A00019FD206841680922D202914341602068EB
:1022B00081682A22914381602068016801221143CC
:1022C0000160204600F06CFD10BD0000F0B587B045
:1022D000044614216846FEF714F8544F012126687D
:1022E00053484904022303220025BE424AD187698C
:1022F000CE103743876187693740059746690E439B
:10230000466140696E46084005905002039229C616
:102310000120049009206946C006FEF763FF454886
:10232000454E21C635608020B560F5608701776134
:10233000356170604048083EFEF72AFF002801D052
:10234000FEF7E8FBE66674623A483B4E14384436C2
:1023500030601020B560706035617561F761802074
:10236000B561F0603046FEF713FF002801D0FEF79C
:10237000D1FBA666002211461B207462FFF764F8A9
:102380001B204EE02D4FBE424DD1C6690E43C661A3
:10239000C6690E40059646690E43466140696E4621
:1023A000084005900C20039229C6012004900920C2
:1023B0006946C006FEF716FF1E481F4E28308836B5
:1023C00021C635608020B560F56087017761356191
:1023D000706030460838083EFEF7DAFE002801D06B
:1023E000FEF798FBE66674621248134E1430CC3642
:1023F00030601020B560706035617561F7618020D4
:10240000B561F0603046FEF7C3FE002801D0FEF74C
:1024100081FBA666002211461C207462FFF714F8A7
:102420001C20FFF705F807B0F0BD000000380140A0
:102430000010024030000240F80400200044004038
:102440007047FEE73EB500242049214800940194DE
:10245000029412C0046004224460C26001218160C1
:10246000047444748174C474FF22C2328461426172
:1024700002461832147101620838FEF7E7FB0028A3
:1024800001D0FEF747FB01200003019000040290F9
:10249000009469460E48FEF73FFB002801D0FEF786
:1024A00039FB0720009069460948FEF735FB0028F4
:1024B00001D0FEF72FFB1020009069460448FEF77C
:1024C0002BFB002801D0FEF725FB3EBD0024014078
:1024D0001003002010B50E480C4901601021416026
:1024E000002103228160920402610122C160120571
:1024F0004261017641768176C17601774177FEF7B8
:102500001BFD002801D0FEF705FB10BD0064004054
:102510005003002008B50C48416901221143416174
:10252000406910400022009011460A20FEF78CFFFF
:102530000A20FEF77DFF002211460B20FEF784FFE4
:102540000B20FEF775FF08BD0010024010B58EB0DD
:102550001C220D496846FDF7BBFE0021684600F0CD
:1025600044FE0A4C084960601C221C3107A8FDF794
:10257000AFFE002107A800F038FEA0600448FEF777
:10258000ADFC0EB010BD0000443A00082000002051
:1025900010030020F0B587B014216846FDF7B1FEA6
:1025A00027484269012189050A43426142690A407C
:1025B0000592426949110A43426142690A40059203
:1025C000426949000A43426140691E4E084009279A
:1025D000FF060590002231463846FEF7B5FE002280
:1025E000E2211948FEF7B0FE0220002401256A46C8
:1025F00031C269463846FEF7F5FD02946946384611
:10260000009601950394FEF7EDFD402000900194A3
:10261000694602943846FEF7E5FD019469460A488A
:1026200000950294FEF7DEFDE220009002946946D8
:10263000019503940448FEF7D5FD07B0F0BD0000F6
:1026400000100240308100000004004810B50B4823
:10265000094901602F214160002181607D220161D3
:10266000D2004161C2608161FFF7A8FA002801D061
:10267000FEF750FA10BD000000480140B8030020EA
:1026800010B58EB000240794089409940A940B9412
:102690001C2168460C94FDF734FE21481F49016057
:1026A0000B2184604160046163218461C160FFF794
:1026B00085FA002801D0FEF72DFA012000030790CB
:1026C00007A91748FFF7CCFA002801D0FEF722FA35
:1026D0001348FFF770FC002801D0FEF71BFA0B949B
:1026E0000BA90F480C94FFF73DFA002801D0FEF724
:1026F00011FA602000903220019002940022694675
:1027000004940748FFF7EFFB002801D0FEF702FA18
:102710000348FFF7BFFB0EB010BD000000040040EF
:102720007803002010B50C480A4901604B21C9010B
:10273000416000218160C16001618161C1610C2241
:10274000016242614162FFF78BFD002801D0FEF774
:10275000E1F910BD00380140F803002010B50C4825
:102760000A4901604B21C901416000218160C160BB
:1027700001618161C1610C22016242614162FFF726
:102780006FFD002801D0FEF7C5F910BD00440040E0
:10279000780400207047000010B5064901204870F9
:1027A000054932200968486300210348FFF720FCEF
:1027B00010BD0000000000207803002010B504497F
:1027C0000020487001460348FFF73AFC10BD0000A6
:1027D00000000020780300207047000008B5184E64
:1027E000184D194F194CA868FDF7FEFF3146FDF74B
:1027F000ECFDFEF71DF83A46154BFDF706FF154AAE
:10280000154BFDF779FF0022144BFDF759FEFEF73B
:1028100023F8E0602868FDF7EFFF114A114BFDF740
:1028200003FF0022104BFDF767FFFEF715F80F4975
:1028300000910F4B00220F4900F098FC2061D2E775
:102840006740533AB0000020E17A14AE2000002027
:1028500047E1F63F3333333333331140000039401F
:102860006666666666660A4000FEAF400000FA4291
:102870000000F0C1CDCCCC3F2F4F304E0024254678
:1028800000F092FC71623062FFF786FFFF20F530A6
:10289000002100F033FCFFF791FF2948002100F0F0
:1028A0002DFC0020641C454101212648FEF7B6FAA4
:1028B0002448FEF7C7F9386001212248FEF7AEFA36
:1028C0002048FEF7BFF9786001211E48FEF7A6FAFE
:1028D0001C48FEF7B7F9B8601B487968814206D2F8
:1028E000FF21F53128460022611A9041D9D3FF21FA
:1028F000F5310020611A854118D200F055FC326A8A
:10290000736A801A9941F161B061FDF783FF00227B
:102910000E4BFDF7F1FEFDF79FFFFDF789FF0C4A17
:102920000C4BFDF781FEFDF797FF00E00A48306091
:10293000642000F04DFCA1E7B00000202000002042
:10294000C409000010030020AC0D000000409F40AF
:102950007B14AE47E17AD43F7F96184B10B5FDF754
:10296000CFFB044600F0BAFF002803D00120034942
:10297000000748602046FDF7C7FB10BD00ED00E0F2
:1029800070B598B034216846FDF7BBFC00240D9467
:102990000E940F94182111A81094FDF7B2FC012594
:1029A00011200595009001951020069000030A90D3
:1029B000000102260B9009960C946846FEF7CEFEA5
:1029C00007200D900F9401210E9610940DA8FEF78C
:1029D000C5FD11A811951394FEF73AFD18B070BD0E
:1029E0007047000010B50248FFF7A3F910BD0000C2
:1029F000B803002010B50248FFF79BF910BD000096
:102A000008060020F0B502681A4B0124A4071A4DED
:102A1000984203D0A04201D0A84203D17026B2430D
:102A20004E683243154E164F98420AD0A04208D045
:102A3000A84206D0134CA04203D0B04201D0B84205
:102A400004D103242402A243CC6822438024A2435D
:102A50004C69224302608A68C2620A6882629842B4
:102A600003D0B04201D0B84201D10969016301210C
:102A70004161F0BD002C01400004004000440140D1
:102A8000004801400020004010B5CB06DB0E0121BC
:102A9000046A99408C430462016A9A4011430162BE
:102AA00010BD30B58468FF252D021B021343AC43D3
:102AB0000B432343836030BD826870239A430A43EB
:102AC00007210A4382607047F0B5026A520852003B
:102AD0000262056A436882697024A24392080C6806
:102AE00092001443022295438A68134E2A43114DE3
:102AF000A84204D0B04202D0104FB84206D10827F5
:102B0000BA43CF681743042297433A46A84204D0F9
:102B1000B04202D0094DA84206D103252D02AB4395
:102B20004D691D438B692B43436084614968416350
:102B30000262F0BD002C0140004401400048014009
:102B400070B5026A10239A430262046A436882697C
:102B500073252D02AA430D682D02154320229443AC
:102B60008A6812012243104CA04208D11446CA6858
:102B70008026B443120122434024A24305E00B4CBB
:102B8000A04202D00A4CA04208D10324A402A343CD
:102B90004C69A4001C438B699B00234343608561FF
:102BA00049688163026270BD002C0140004401400D
:102BB0000048014070B5026AFF2301339A43026264
:102BC000046A4368C2697025AA4392080D6892009E
:102BD00015430122520294438A6812022243104C88
:102BE000A04207D1C414A243CC6824022243061594
:102BF000B24305E00B4CA04202D00B4CA04208D1DE
:102C000003242403A3434C6924011C438B691B0147
:102C100023434360C5614968C163026270BD00001F
:102C2000002C0140004401400048014030B5026AD8
:102C300001231B039A430262056A4268C369732435
:102C40002402A3430C6824021C4301235B039D431D
:102C50008B681B032B430A4DA84205D0094DA8429F
:102C600002D0094DA84205D10125AD03AA434D6903
:102C7000AD012A434260C46149680164036230BD0A
:102C8000002C0140004401400048014030B5036A77
:102C9000046A6408640004628469F025AC4312018C
:102CA00022430A24A3430B438261036230BD30B543
:102CB000036A1024A34303628469036A0F252D036A
:102CC0001203AC432243A024A343090119438261A8
:102CD000016230BD10B5818CC90707D001684A6810
:102CE00001235B049A43836A1A434A60818C8907F3
:102CF00007D501684A6801231B049A43C36A1A4333
:102D00004A60818C490707D501684A6801239B0402
:102D10009A43036B1A434A60818C090707D50168FF
:102D20004A680123DB039A43436B1A434A60818C50
:102D3000C90607D50268916801231B039943836B79
:102D400019439160818C890607D501688A6801233F
:102D50005B039A43C36B1A438A60818C490612D580
:102D600003685A6801210905046C8A4322435A60AA
:102D7000026C8A4207D10268516803235B059943BC
:102D8000436C19435160818C090607D501684A6874
:102D90000123DB04806C9A4302434A6010BD0000AB
:102DA000F8B500260446C667FEF7D4FA0546206843
:102DB0000068124F000709D501212B460022490562
:102DC0002046009700F0DAF800280DD1206800684E
:102DD00040070BD501212B4600228905204600978C
:102DE00000F0CCF8002801D00320F8BD2020606757
:102DF000A067603426740020F8BD0000FFFFFF01CB
:102E000010B5406A0022014640314A834A82FFF7EA
:102E100075F910BD01680A68FF2321339A430A60DF
:102E200001688A68520852008A6020218167002167
:102E30000166704770B5044680682169E2690843FD
:102E4000616900251143226808431168444B194009
:102E50000143116021684868032212039043E2682D
:102E600010434860A169206A2268084391680B23D7
:102E70001B029943014391603A492068884210D16E
:102E80003948006B8007800F11D0012805D0022837
:102E900005D003280AD1022009E0042007E0082019
:102EA00005E03249884201D1002000E010200122D3
:102EB000E169D2032E4E914228D1002806D0022883
:102EC00007D0042817D0082844D11AE0FEF7ECFBFD
:102ED00013E06168274A48088018FDF765F980B259
:102EE00001461039B14235D82149491C014000073B
:102EF000400F084321E0FEF7E7FB616840004A0805
:102F0000EAE76168012248081204E5E7002806D0D4
:102F1000022807D0042813D008281BD116E0FEF79A
:102F2000C3FB0FE06168144A480811E0FDF73CF963
:102F300080B201461039B1420CD82168C8600AE05D
:102F4000FEF7C2FB61684A081018EFE7616848089D
:102F50008018EBE70125002020666066284670BDDA
:102F6000F369FFEF003801400010024000440040C8
:102F7000EFFF00000024F40000127A00FFB581B0DA
:102F800005460F46044660350A9E38E0701C36D070
:102F9000FEF7E0F90499401AB04221D8002E1FD064
:102FA0002068016849072AD5C069C043000526D4B6
:102FB00001202168C002086220680168FF22A13256
:102FC00091430160206881684908490081602020A0
:102FD0006067A067E06700202874032005B0F0BD9B
:102FE00020680168FF22A132914301602068816856
:102FF00049084900816020206067A067EBE72068EE
:10300000C1693846884305D0002103988142BDD06C
:103010000020E3E70121F8E710B50248FFF770F858
:1030200010BD0000F803002010B50248FFF768F853
:1030300010BD0000780400202021020C01D01021D6
:103040001046020A01D010460839020901D0104684
:10305000091F820801D01046891E420801D0881E2F
:103060007047081A7047F8B5040C8BB2264682B236
:103070005E430D0C1046370C58433604801900216E
:10308000794116466E43370C36048019794126463D
:103090006E438919F8BD00008307FF22DB0E9A40BA
:1030A0008907090E9940002808DB830809489B001E
:1030B0001B18186890430843186070470007000FFA
:1030C0000838830804489B001B18D86990430843BC
:1030D000D861704700E400E000ED00E002E008C8BD
:1030E000121F08C1002AFAD170477047002001E082
:1030F00001C1121F002AFBD17047000070B50546C0
:103100000C4600F051F840196141054CE161A061A5
:1031100000F04AF8A269E369801A9941F8D370BDBA
:1031200000000020FEF724F9FFF72AFCFFF732FA2F
:10313000FFF7F0F9FFF786F9FFF7CCF9FFF7A0FAF0
:10314000FFF7F0FAFFF70AFBFFF780FA0348FEF7F4
:1031500077FDFFF7FBF900F043F8FEE7B803002026
:1031600001460020842900D0C81C7047FFB581B0FB
:1031700007460E4610460A9CFDF71FF905462046F5
:103180000499FDF71AF9044631463846FDF715F95A
:103190002146FDF71AF92946FDF754F90499FDF780
:1031A000BBF805B0F0BD000010B507497D22886866
:1031B000C968D2000023FDF73DF8044A1268526A3C
:1031C00000238018594110BD00000020B8030020E2
:1031D00010B5002800D1012000F094FA002010BDA5
:1031E00010B500F0A7FA002010BD7FB50D460446CB
:1031F00041690820205E002911D0A16900290ED064
:10320000FFF7AEFF6B46A269616907C32B462269CF
:103210002168606800F03FFB039004B070BDFFF7C9
:103220009FFF03A901910090208A2B4682B221685A
:10323000606800F007FB012801D00020EDE703984B
:10324000EBE70000F8B5134C0F46666905462068A9
:10325000001D00F0BFF9681C07D1002F05D02168C0
:103260000D48091D00F0FAF9F8BD20687519456090
:103270002168B54204D2A068091D00F0D7F9F8BD55
:103280006068091D00F0D2F9206B8542F7D22563F2
:10329000F8BD00005800002024070020F8B50546BE
:1032A00000F0E8F9294C2069401C20612068284F73
:1032B000002803D0E069002827D02CE02560206991
:1032C000012828D1002614207043C01900F0A0F96D
:1032D000761C072EF7D31E488C3000F099F91C4855
:1032E000A03000F095F91A48B43000F091F9184870
:1032F000C83000F08DF91648DC3000F089F9144828
:103300008C3060601430A06005E02068E96AC06A13
:10331000884200D82560E06A401CE062E86AA16942
:10332000884200D9A06114214843C019291D00F02A
:1033300095F900F0ABF9E069002806D02068E96A49
:10334000C06A884201D200F0D1F9F8BD58000020CF
:103350004806002010B504464030407C002805D0C7
:10336000012806D0022807D072B6FEE7206B00F0D5
:103370009BF9204600F098F910BD000003210E488B
:103380008902420705D0C01DC0080B4AC000821A3E
:10339000891A0A4A0023411809C20839C908C90014
:1033A000183A11604B600B600B1A0AC09360012041
:1033B000C0075360D060704738070020A400002089
:1033C0000F4E104C3746C83F11E000F053F9F0683B
:1033D000C568281D00F0FEF82069401E2061E068E5
:1033E000401EE06000F052F92846FFF7B3FFE068A6
:1033F0000028EAD138680128F9D900F077F9F6E712
:103400001007002058000020FFB581B00C9C9000F0
:10341000236B001F1818C6080A9DF600700701D01C
:1034200072B6FEE723180A5C20331A750A5C002A7C
:1034300002D0401C1028F5D32046403000270090D1
:10344000C770072D00D30625E562A764201D6564BB
:1034500000F0E9F82046183000F0E5F82461072074
:10346000401B6462A061E764009807743046049AC8
:10347000019900F09FF820600B98002800D00460AC
:1034800005B0F0BD30B5114900E011460A6882422E
:10349000FBD34B685C18844203D14068181848601D
:1034A000084643681C18944209D1084C103C246813
:1034B000A24209D052689A1842600A6812680260F3
:1034C000814200D0086030BD0460F9E7A40000200C
:1034D000064841680968002905D04168C968C9687B
:1034E0004968016370470021C943FAE7580000208A
:1034F00003480068401C72B600D0FEE7FEE70000FB
:10350000AC000020F8B50546002700F03FF9284E32
:103510003068002801D1FFF731FFF06805423FD144
:10352000002D3DD00835680708D06807400F0821F6
:10353000081A4519680701D072B6FEE7002D2FD092
:10354000706885422CD81A48103001460C6801E09A
:1035500020460C466168A94202D221680029F7D1B1
:1035600031688C421CD007682168016060680837A8
:10357000411B102908D96019420701D072B6FEE735
:1035800041606560FFF77EFF61687068401A706097
:10359000B268904200D2B060F0680143002003C4DA
:1035A00000F0FAF9780701D072B6FEE73846F8BDA8
:1035B0009400002010B50124031F24061C601B1F6B
:1035C0001960191F024B0B60143940380A6010BD96
:1035D000F13400084368826801699A608368426830
:1035E0005A604A68824201D182684A6000220261C0
:1035F0000868401E0860086870470000034B0360BD
:10360000184654300860802010607047BC000020CD
:103610000146083100224160D243C16082600161ED
:1036200000210160704700210161704730B50B68CF
:103630005A1C02D00246083202E0026904E0224627
:10364000546825689D42FAD953684B6099608A6036
:10365000516008610168491C016030BD42684A60E0
:1036600093688B6093685960916008610168491C98
:103670000160704772B604480168491C0160BFF3DD
:103680004F8FBFF36F8F7047AC000020054908686B
:10369000002804D0401E086000D162B6704772B6A0
:1036A000FEE70000AC00002070B500281AD00446E8
:1036B0000D4D083C6068E968084201D172B6FEE72A
:1036C0002268002A01D072B6FEE78843606000F0ED
:1036D0005DF860686968401868602046FFF7D2FEB0
:1036E00000F05AF970BD0000940000200120044948
:1036F00000074860BFF34F8FBFF36F8F7047000024
:1037000000ED00E010B502000FD00948806B0028E2
:1037100001D072B6FEE700F039F800211046FFF73D
:1037200091FD00F039F9002801D1FFF7DFFF10BD4E
:103730005800002010B586B00024039405AA04A9FF
:1037400003A80494FFF75AFF049903980094019189
:103750000290002309A10B48059A00F09CF80A4941
:103760000028486308D072B60020C04308630120D7
:10377000C8614C6100F03EF806B010BD49444C45AC
:1037800000000000C1330008580000200248816B8F
:10379000491C8163704700005800002010B5134891
:1037A000816B002902D00121416210BD00214162DC
:1037B00081690F4A02E0002915D0491E14234B43AA
:1037C000D358002BF7D014234B439A185368144650
:1037D0005B6808345360A34201D15B685360DA68C8
:1037E0000260816110BD72B6FEE700005800002043
:1037F0004806002070B50F48016AFF2212041143E9
:103800000162016A1202114301620B4C002525611D
:10381000A5610A487D21C9000068FCF7C5FC401E6F
:1038200060610720206106480560FCF755FC002018
:1038300070BD000000ED00E000E000E0540000205A
:10384000AC000020FFB585B0164690000F9FFFF733
:1038500059FE05001CD05420FFF754FE040014D07C
:1038600000205121256308550E990091039001977E
:1038700002943246089B06990598FFF7C5FD20463D
:10388000FFF70CFD012009B0F0BD2846FFF70CFF43
:103890000020C043F7E7F0B585B007460B9D0C9CB0
:1038A0000A98002D15D0002C15D05426256302252A
:1038B00051263555002504AE0090019603950294DB
:1038C0003846FFF7A1FD2046FFF7E8FC049805B055
:1038D000F0BD72B6FEE772B6FEE70000F8B52C4CFC
:1038E0000027A06B002808D0206A401C2062606A74
:1038F000002800D001273846F8BD6669761C66614D
:103900000ED160680068002801D072B6FEE76068DA
:10391000A1686160A060A06A401CA062FFF7D8FDAA
:10392000206B86420AD360680068002810D0606867
:10393000C068C568686886420DD22063206814217B
:10394000C06A4843134908580128D0D90127CEE757
:103950000020C043F1E7281DFFF73CFEA86A0028BD
:1039600003D028461830FFF735FEE86AA16988427F
:1039700000D9A0611421484306494018291DFFF7CA
:103980006DFEE86A2168C96A8842CCD30127CAE77C
:103990005800002048060020F8B5284C0025A06BF0
:1039A0002E46002808D0FFF765FEA06B401EA063DE
:1039B000A06B002802D03DE072B6FEE72169204FDF
:1039C00000291DD136E0F868C56828461830FFF791
:1039D00001FE281DFFF7FEFDE86AA169884200D9B3
:1039E000A061142148431649B4394018291DFFF736
:1039F00035FEE86A2168C96A884201D30120606205
:103A000038680028DFD1002D01D0FFF761FD256A5D
:103A1000002D09D00127FFF761FF002800D0676261
:103A20006D1EF8D100202062606A002802D00126B5
:103A3000FFF75CFEFFF72AFE3046F8BD5800002075
:103A4000FC060020983A00087928000800000000D1
:103A500000000000800000000000000000000000E6
:103A6000943A0008DD270008FDFF00000000000078
:103A700080000000000000000000000000000000C6
:103A8000000000000102030406070809000000000E
:103A9000010203044C45440053657269616C0000E7
:103AA000C03A000800000020B0000000DC30000830
:103AB000703B0008B000002088160000EC300008C1
:103AC00000000000000000000000000000000000F6
:103AD00000010203040506070000000000000000CA
:103AE00000000000000000000000000000000000D6
:103AF00000000000000000000000000000000000C6
:103B000000000000000000000100000004000000B0
:103B10000000000000127A00000000000000000019
:103B20000000000000000000000000000000000095
:103B30000000000000000000000000000000000085
:103B40000000000000000000000000000000000075
:103B50000000000000000000000000000000000065
:103B6000000000000000000000000000AAAAAAAAAD
:04000005080000C12E
:00000001FF
